{
  "contractName": "HealthCare",
  "abi": [
    {
      "inputs": [],
      "payable": false,
      "stateMutability": "nonpayable",
      "type": "constructor"
    },
    {
      "constant": true,
      "inputs": [],
      "name": "getDoctorInfo",
      "outputs": [
        {
          "internalType": "string",
          "name": "",
          "type": "string"
        },
        {
          "internalType": "address[]",
          "name": "",
          "type": "address[]"
        }
      ],
      "payable": false,
      "stateMutability": "view",
      "type": "function"
    },
    {
      "constant": true,
      "inputs": [],
      "name": "getPatientInfo",
      "outputs": [
        {
          "internalType": "string",
          "name": "",
          "type": "string"
        },
        {
          "internalType": "uint8",
          "name": "",
          "type": "uint8"
        },
        {
          "internalType": "bytes32[]",
          "name": "",
          "type": "bytes32[]"
        },
        {
          "internalType": "address[]",
          "name": "",
          "type": "address[]"
        }
      ],
      "payable": false,
      "stateMutability": "view",
      "type": "function"
    },
    {
      "constant": false,
      "inputs": [
        {
          "internalType": "string",
          "name": "_name",
          "type": "string"
        }
      ],
      "name": "signupDoctor",
      "outputs": [],
      "payable": false,
      "stateMutability": "nonpayable",
      "type": "function"
    },
    {
      "constant": false,
      "inputs": [
        {
          "internalType": "string",
          "name": "_name",
          "type": "string"
        },
        {
          "internalType": "uint8",
          "name": "_age",
          "type": "uint8"
        }
      ],
      "name": "signupPatient",
      "outputs": [],
      "payable": false,
      "stateMutability": "nonpayable",
      "type": "function"
    },
    {
      "constant": true,
      "inputs": [
        {
          "internalType": "address",
          "name": "_user",
          "type": "address"
        }
      ],
      "name": "checkProfile",
      "outputs": [
        {
          "internalType": "string",
          "name": "",
          "type": "string"
        },
        {
          "internalType": "string",
          "name": "",
          "type": "string"
        }
      ],
      "payable": false,
      "stateMutability": "view",
      "type": "function"
    },
    {
      "constant": false,
      "inputs": [
        {
          "internalType": "address",
          "name": "doctor_id",
          "type": "address"
        }
      ],
      "name": "grantAccessToDoctor",
      "outputs": [],
      "payable": false,
      "stateMutability": "nonpayable",
      "type": "function"
    },
    {
      "constant": false,
      "inputs": [
        {
          "internalType": "string",
          "name": "_file_name",
          "type": "string"
        },
        {
          "internalType": "string",
          "name": "_file_type",
          "type": "string"
        },
        {
          "internalType": "bytes32",
          "name": "_fileHash",
          "type": "bytes32"
        },
        {
          "internalType": "string",
          "name": "_file_secret",
          "type": "string"
        }
      ],
      "name": "addFile",
      "outputs": [],
      "payable": false,
      "stateMutability": "nonpayable",
      "type": "function"
    },
    {
      "constant": true,
      "inputs": [
        {
          "internalType": "address",
          "name": "pat",
          "type": "address"
        }
      ],
      "name": "getPatientInfoForDoctor",
      "outputs": [
        {
          "internalType": "string",
          "name": "",
          "type": "string"
        },
        {
          "internalType": "uint8",
          "name": "",
          "type": "uint8"
        },
        {
          "internalType": "address",
          "name": "",
          "type": "address"
        },
        {
          "internalType": "bytes32[]",
          "name": "",
          "type": "bytes32[]"
        }
      ],
      "payable": false,
      "stateMutability": "view",
      "type": "function"
    },
    {
      "constant": true,
      "inputs": [
        {
          "internalType": "bytes32",
          "name": "fileHashId",
          "type": "bytes32"
        },
        {
          "internalType": "string",
          "name": "role",
          "type": "string"
        },
        {
          "internalType": "address",
          "name": "id",
          "type": "address"
        },
        {
          "internalType": "address",
          "name": "pat",
          "type": "address"
        }
      ],
      "name": "getFileSecret",
      "outputs": [
        {
          "internalType": "string",
          "name": "",
          "type": "string"
        }
      ],
      "payable": false,
      "stateMutability": "view",
      "type": "function"
    },
    {
      "constant": true,
      "inputs": [
        {
          "internalType": "address",
          "name": "doc",
          "type": "address"
        },
        {
          "internalType": "address",
          "name": "pat",
          "type": "address"
        },
        {
          "internalType": "bytes32",
          "name": "fileHashId",
          "type": "bytes32"
        }
      ],
      "name": "getFileInfoDoctor",
      "outputs": [
        {
          "internalType": "string",
          "name": "",
          "type": "string"
        },
        {
          "internalType": "string",
          "name": "",
          "type": "string"
        }
      ],
      "payable": false,
      "stateMutability": "view",
      "type": "function"
    },
    {
      "constant": true,
      "inputs": [
        {
          "internalType": "address",
          "name": "pat",
          "type": "address"
        },
        {
          "internalType": "bytes32",
          "name": "fileHashId",
          "type": "bytes32"
        }
      ],
      "name": "getFileInfoPatient",
      "outputs": [
        {
          "internalType": "string",
          "name": "",
          "type": "string"
        },
        {
          "internalType": "string",
          "name": "",
          "type": "string"
        }
      ],
      "payable": false,
      "stateMutability": "view",
      "type": "function"
    }
  ],
  "bytecode": "0x608060405234801561001057600080fd5b5033600660006101000a81548173ffffffffffffffffffffffffffffffffffffffff021916908373ffffffffffffffffffffffffffffffffffffffff160217905550614ea3806100616000396000f3fe608060405234801561001057600080fd5b50600436106100a95760003560e01c80637f34cf94116100715780637f34cf94146104be5780639f6a7a1114610611578063b259832d14610804578063b380f5c614610937578063cf954d4514610a02578063fe59cc1a14610b80576100a9565b806301d99258146100ae5780631c8e251c146101d7578063326df6641461021b5780636459d52f1461033b5780637120203a146103f6575b600080fd5b6100f0600480360360208110156100c457600080fd5b81019080803573ffffffffffffffffffffffffffffffffffffffff169060200190929190505050610cc5565b604051808060200180602001838103835285818151815260200191508051906020019080838360005b83811015610134578082015181840152602081019050610119565b50505050905090810190601f1680156101615780820380516001836020036101000a031916815260200191505b50838103825284818151815260200191508051906020019080838360005b8381101561019a57808201518184015260208101905061017f565b50505050905090810190601f1680156101c75780820380516001836020036101000a031916815260200191505b5094505050505060405180910390f35b610219600480360360208110156101ed57600080fd5b81019080803573ffffffffffffffffffffffffffffffffffffffff16906020019092919050505061127a565b005b61022361198a565b60405180806020018560ff1660ff1681526020018060200180602001848103845288818151815260200191508051906020019080838360005b8381101561027757808201518184015260208101905061025c565b50505050905090810190601f1680156102a45780820380516001836020036101000a031916815260200191505b50848103835286818151815260200191508051906020019060200280838360005b838110156102e05780820151818401526020810190506102c5565b50505050905001848103825285818151815260200191508051906020019060200280838360005b83811015610322578082015181840152602081019050610307565b5050505090500197505050505050505060405180910390f35b6103f46004803603602081101561035157600080fd5b810190808035906020019064010000000081111561036e57600080fd5b82018360208201111561038057600080fd5b803590602001918460018302840111640100000000831117156103a257600080fd5b91908080601f016020809104026020016040519081016040528093929190818152602001838380828437600081840152601f19601f820116905080830192505050505050509192919290505050611e9b565b005b6104bc6004803603604081101561040c57600080fd5b810190808035906020019064010000000081111561042957600080fd5b82018360208201111561043b57600080fd5b8035906020019184600183028401116401000000008311171561045d57600080fd5b91908080601f016020809104026020016040519081016040528093929190818152602001838380828437600081840152601f19601f820116905080830192505050505050509192919290803560ff169060200190929190505050612267565b005b61052a600480360360608110156104d457600080fd5b81019080803573ffffffffffffffffffffffffffffffffffffffff169060200190929190803573ffffffffffffffffffffffffffffffffffffffff16906020019092919080359060200190929190505050612747565b604051808060200180602001838103835285818151815260200191508051906020019080838360005b8381101561056e578082015181840152602081019050610553565b50505050905090810190601f16801561059b5780820380516001836020036101000a031916815260200191505b50838103825284818151815260200191508051906020019080838360005b838110156105d45780820151818401526020810190506105b9565b50505050905090810190601f1680156106015780820380516001836020036101000a031916815260200191505b5094505050505060405180910390f35b6108026004803603608081101561062757600080fd5b810190808035906020019064010000000081111561064457600080fd5b82018360208201111561065657600080fd5b8035906020019184600183028401116401000000008311171561067857600080fd5b91908080601f016020809104026020016040519081016040528093929190818152602001838380828437600081840152601f19601f820116905080830192505050505050509192919290803590602001906401000000008111156106db57600080fd5b8201836020820111156106ed57600080fd5b8035906020019184600183028401116401000000008311171561070f57600080fd5b91908080601f016020809104026020016040519081016040528093929190818152602001838380828437600081840152601f19601f820116905080830192505050505050509192919290803590602001909291908035906020019064010000000081111561077c57600080fd5b82018360208201111561078e57600080fd5b803590602001918460018302840111640100000000831117156107b057600080fd5b91908080601f016020809104026020016040519081016040528093929190818152602001838380828437600081840152601f19601f820116905080830192505050505050509192919290505050612f68565b005b6108506004803603604081101561081a57600080fd5b81019080803573ffffffffffffffffffffffffffffffffffffffff169060200190929190803590602001909291905050506133ad565b604051808060200180602001838103835285818151815260200191508051906020019080838360005b83811015610894578082015181840152602081019050610879565b50505050905090810190601f1680156108c15780820380516001836020036101000a031916815260200191505b50838103825284818151815260200191508051906020019080838360005b838110156108fa5780820151818401526020810190506108df565b50505050905090810190601f1680156109275780820380516001836020036101000a031916815260200191505b5094505050505060405180910390f35b61093f6139b4565b604051808060200180602001838103835285818151815260200191508051906020019080838360005b83811015610983578082015181840152602081019050610968565b50505050905090810190601f1680156109b05780820380516001836020036101000a031916815260200191505b50838103825284818151815260200191508051906020019060200280838360005b838110156109ec5780820151818401526020810190506109d1565b5050505090500194505050505060405180910390f35b610b0560048036036080811015610a1857600080fd5b810190808035906020019092919080359060200190640100000000811115610a3f57600080fd5b820183602082011115610a5157600080fd5b80359060200191846001830284011164010000000083111715610a7357600080fd5b91908080601f016020809104026020016040519081016040528093929190818152602001838380828437600081840152601f19601f820116905080830192505050505050509192919290803573ffffffffffffffffffffffffffffffffffffffff169060200190929190803573ffffffffffffffffffffffffffffffffffffffff169060200190929190505050613dc2565b6040518080602001828103825283818151815260200191508051906020019080838360005b83811015610b45578082015181840152602081019050610b2a565b50505050905090810190601f168015610b725780820380516001836020036101000a031916815260200191505b509250505060405180910390f35b610bc260048036036020811015610b9657600080fd5b81019080803573ffffffffffffffffffffffffffffffffffffffff169060200190929190505050614162565b60405180806020018560ff1660ff1681526020018473ffffffffffffffffffffffffffffffffffffffff1673ffffffffffffffffffffffffffffffffffffffff16815260200180602001838103835287818151815260200191508051906020019080838360005b83811015610c44578082015181840152602081019050610c29565b50505050905090810190601f168015610c715780820380516001836020036101000a031916815260200191505b50838103825284818151815260200191508051906020019060200280838360005b83811015610cad578082015181840152602081019050610c92565b50505050905001965050505050505060405180910390f35b606080600660009054906101000a900473ffffffffffffffffffffffffffffffffffffffff1673ffffffffffffffffffffffffffffffffffffffff163373ffffffffffffffffffffffffffffffffffffffff1614610d2257600080fd5b610d2a614bea565b600260008573ffffffffffffffffffffffffffffffffffffffff1673ffffffffffffffffffffffffffffffffffffffff1681526020019081526020016000206040518060a0016040529081600082018054600181600116156101000203166002900480601f016020809104026020016040519081016040528092919081815260200182805460018160011615610100020316600290048015610e0d5780601f10610de257610100808354040283529160200191610e0d565b820191906000526020600020905b815481529060010190602001808311610df057829003601f168201915b505050505081526020016001820160009054906101000a900460ff1660ff1660ff1681526020016001820160019054906101000a900473ffffffffffffffffffffffffffffffffffffffff1673ffffffffffffffffffffffffffffffffffffffff1673ffffffffffffffffffffffffffffffffffffffff16815260200160028201805480602002602001604051908101604052809291908181526020018280548015610ed857602002820191906000526020600020905b815481526020019060010190808311610ec4575b5050505050815260200160038201805480602002602001604051908101604052809291908181526020018280548015610f6657602002820191906000526020600020905b8160009054906101000a900473ffffffffffffffffffffffffffffffffffffffff1673ffffffffffffffffffffffffffffffffffffffff1681526020019060010190808311610f1c575b5050505050815250509050610f79614c32565b6000808673ffffffffffffffffffffffffffffffffffffffff1673ffffffffffffffffffffffffffffffffffffffff168152602001908152602001600020604051806060016040529081600082018054600181600116156101000203166002900480601f01602080910402602001604051908101604052809291908181526020018280546001816001161561010002031660029004801561105b5780601f106110305761010080835404028352916020019161105b565b820191906000526020600020905b81548152906001019060200180831161103e57829003601f168201915b505050505081526020016001820160009054906101000a900473ffffffffffffffffffffffffffffffffffffffff1673ffffffffffffffffffffffffffffffffffffffff1673ffffffffffffffffffffffffffffffffffffffff1681526020016002820180548060200260200160405190810160405280929190818152602001828054801561113f57602002820191906000526020600020905b8160009054906101000a900473ffffffffffffffffffffffffffffffffffffffff1673ffffffffffffffffffffffffffffffffffffffff16815260200190600101908083116110f5575b5050505050815250509050600073ffffffffffffffffffffffffffffffffffffffff16826040015173ffffffffffffffffffffffffffffffffffffffff1611156111cc5781600001518090506040518060400160405280600781526020017f70617469656e7400000000000000000000000000000000000000000000000000815250935093505050611275565b600073ffffffffffffffffffffffffffffffffffffffff16816020015173ffffffffffffffffffffffffffffffffffffffff16111561124e5780600001518090506040518060400160405280600681526020017f646f63746f720000000000000000000000000000000000000000000000000000815250935093505050611275565b60405180602001604052806000815250604051806020016040528060008152509350935050505b915091565b33611283614bea565b600260008373ffffffffffffffffffffffffffffffffffffffff1673ffffffffffffffffffffffffffffffffffffffff1681526020019081526020016000206040518060a0016040529081600082018054600181600116156101000203166002900480601f0160208091040260200160405190810160405280929190818152602001828054600181600116156101000203166002900480156113665780601f1061133b57610100808354040283529160200191611366565b820191906000526020600020905b81548152906001019060200180831161134957829003601f168201915b505050505081526020016001820160009054906101000a900460ff1660ff1660ff1681526020016001820160019054906101000a900473ffffffffffffffffffffffffffffffffffffffff1673ffffffffffffffffffffffffffffffffffffffff1673ffffffffffffffffffffffffffffffffffffffff1681526020016002820180548060200260200160405190810160405280929190818152602001828054801561143157602002820191906000526020600020905b81548152602001906001019080831161141d575b50505050508152602001600382018054806020026020016040519081016040528092919081815260200182805480156114bf57602002820191906000526020600020905b8160009054906101000a900473ffffffffffffffffffffffffffffffffffffffff1673ffffffffffffffffffffffffffffffffffffffff1681526020019060010190808311611475575b5050505050815250509050600073ffffffffffffffffffffffffffffffffffffffff16816040015173ffffffffffffffffffffffffffffffffffffffff161161150757600080fd5b82611510614c32565b6000808373ffffffffffffffffffffffffffffffffffffffff1673ffffffffffffffffffffffffffffffffffffffff168152602001908152602001600020604051806060016040529081600082018054600181600116156101000203166002900480601f0160208091040260200160405190810160405280929190818152602001828054600181600116156101000203166002900480156115f25780601f106115c7576101008083540402835291602001916115f2565b820191906000526020600020905b8154815290600101906020018083116115d557829003601f168201915b505050505081526020016001820160009054906101000a900473ffffffffffffffffffffffffffffffffffffffff1673ffffffffffffffffffffffffffffffffffffffff1673ffffffffffffffffffffffffffffffffffffffff168152602001600282018054806020026020016040519081016040528092919081815260200182805480156116d657602002820191906000526020600020905b8160009054906101000a900473ffffffffffffffffffffffffffffffffffffffff1673ffffffffffffffffffffffffffffffffffffffff168152602001906001019080831161168c575b5050505050815250509050600073ffffffffffffffffffffffffffffffffffffffff16816020015173ffffffffffffffffffffffffffffffffffffffff161161171e57600080fd5b6000600260003373ffffffffffffffffffffffffffffffffffffffff1673ffffffffffffffffffffffffffffffffffffffff168152602001908152602001600020905060008060008873ffffffffffffffffffffffffffffffffffffffff1673ffffffffffffffffffffffffffffffffffffffff16815260200190815260200160002090506001600360003373ffffffffffffffffffffffffffffffffffffffff1673ffffffffffffffffffffffffffffffffffffffff16815260200190815260200160002060008973ffffffffffffffffffffffffffffffffffffffff1673ffffffffffffffffffffffffffffffffffffffff168152602001908152602001600020541061182c57600080fd5b6000826003018890806001815401808255809150509060018203906000526020600020016000909192909190916101000a81548173ffffffffffffffffffffffffffffffffffffffff021916908373ffffffffffffffffffffffffffffffffffffffff160217905550905080600360003373ffffffffffffffffffffffffffffffffffffffff1673ffffffffffffffffffffffffffffffffffffffff16815260200190815260200160002060008a73ffffffffffffffffffffffffffffffffffffffff1673ffffffffffffffffffffffffffffffffffffffff16815260200190815260200160002081905550816002013390806001815401808255809150509060018203906000526020600020016000909192909190916101000a81548173ffffffffffffffffffffffffffffffffffffffff021916908373ffffffffffffffffffffffffffffffffffffffff160217905550505050505050505050565b606060006060803361199a614bea565b600260008373ffffffffffffffffffffffffffffffffffffffff1673ffffffffffffffffffffffffffffffffffffffff1681526020019081526020016000206040518060a0016040529081600082018054600181600116156101000203166002900480601f016020809104026020016040519081016040528092919081815260200182805460018160011615610100020316600290048015611a7d5780601f10611a5257610100808354040283529160200191611a7d565b820191906000526020600020905b815481529060010190602001808311611a6057829003601f168201915b505050505081526020016001820160009054906101000a900460ff1660ff1660ff1681526020016001820160019054906101000a900473ffffffffffffffffffffffffffffffffffffffff1673ffffffffffffffffffffffffffffffffffffffff1673ffffffffffffffffffffffffffffffffffffffff16815260200160028201805480602002602001604051908101604052809291908181526020018280548015611b4857602002820191906000526020600020905b815481526020019060010190808311611b34575b5050505050815260200160038201805480602002602001604051908101604052809291908181526020018280548015611bd657602002820191906000526020600020905b8160009054906101000a900473ffffffffffffffffffffffffffffffffffffffff1673ffffffffffffffffffffffffffffffffffffffff1681526020019060010190808311611b8c575b5050505050815250509050600073ffffffffffffffffffffffffffffffffffffffff16816040015173ffffffffffffffffffffffffffffffffffffffff1611611c1e57600080fd5b611c26614bea565b600260003373ffffffffffffffffffffffffffffffffffffffff1673ffffffffffffffffffffffffffffffffffffffff1681526020019081526020016000206040518060a0016040529081600082018054600181600116156101000203166002900480601f016020809104026020016040519081016040528092919081815260200182805460018160011615610100020316600290048015611d095780601f10611cde57610100808354040283529160200191611d09565b820191906000526020600020905b815481529060010190602001808311611cec57829003601f168201915b505050505081526020016001820160009054906101000a900460ff1660ff1660ff1681526020016001820160019054906101000a900473ffffffffffffffffffffffffffffffffffffffff1673ffffffffffffffffffffffffffffffffffffffff1673ffffffffffffffffffffffffffffffffffffffff16815260200160028201805480602002602001604051908101604052809291908181526020018280548015611dd457602002820191906000526020600020905b815481526020019060010190808311611dc0575b5050505050815260200160038201805480602002602001604051908101604052809291908181526020018280548015611e6257602002820191906000526020600020905b8160009054906101000a900473ffffffffffffffffffffffffffffffffffffffff1673ffffffffffffffffffffffffffffffffffffffff1681526020019060010190808311611e18575b50505050508152505090508060000151816020015182606001518360800151839350819150809050965096509650965050505090919293565b611ea3614c32565b6000803373ffffffffffffffffffffffffffffffffffffffff1673ffffffffffffffffffffffffffffffffffffffff168152602001908152602001600020604051806060016040529081600082018054600181600116156101000203166002900480601f016020809104026020016040519081016040528092919081815260200182805460018160011615610100020316600290048015611f855780601f10611f5a57610100808354040283529160200191611f85565b820191906000526020600020905b815481529060010190602001808311611f6857829003601f168201915b505050505081526020016001820160009054906101000a900473ffffffffffffffffffffffffffffffffffffffff1673ffffffffffffffffffffffffffffffffffffffff1673ffffffffffffffffffffffffffffffffffffffff1681526020016002820180548060200260200160405190810160405280929190818152602001828054801561206957602002820191906000526020600020905b8160009054906101000a900473ffffffffffffffffffffffffffffffffffffffff1673ffffffffffffffffffffffffffffffffffffffff168152602001906001019080831161201f575b50505050508152505090506040518060000190506040518091039020826040516020018082805190602001908083835b602083106120bc5780518252602082019150602081019050602083039250612099565b6001836020036101000a03801982511681845116808217855250505050505090500191505060405160208183030381529060405280519060200120141561210257600080fd5b600073ffffffffffffffffffffffffffffffffffffffff16816020015173ffffffffffffffffffffffffffffffffffffffff16111561214057600080fd5b60405180606001604052808381526020013373ffffffffffffffffffffffffffffffffffffffff168152602001600060405190808252806020026020018201604052801561219d5781602001602082028038833980820191505090505b508152506000803373ffffffffffffffffffffffffffffffffffffffff1673ffffffffffffffffffffffffffffffffffffffff16815260200190815260200160002060008201518160000190805190602001906121fb929190614c69565b5060208201518160010160006101000a81548173ffffffffffffffffffffffffffffffffffffffff021916908373ffffffffffffffffffffffffffffffffffffffff160217905550604082015181600201908051906020019061225f929190614ce9565b509050505050565b61226f614bea565b600260003373ffffffffffffffffffffffffffffffffffffffff1673ffffffffffffffffffffffffffffffffffffffff1681526020019081526020016000206040518060a0016040529081600082018054600181600116156101000203166002900480601f0160208091040260200160405190810160405280929190818152602001828054600181600116156101000203166002900480156123525780601f1061232757610100808354040283529160200191612352565b820191906000526020600020905b81548152906001019060200180831161233557829003601f168201915b505050505081526020016001820160009054906101000a900460ff1660ff1660ff1681526020016001820160019054906101000a900473ffffffffffffffffffffffffffffffffffffffff1673ffffffffffffffffffffffffffffffffffffffff1673ffffffffffffffffffffffffffffffffffffffff1681526020016002820180548060200260200160405190810160405280929190818152602001828054801561241d57602002820191906000526020600020905b815481526020019060010190808311612409575b50505050508152602001600382018054806020026020016040519081016040528092919081815260200182805480156124ab57602002820191906000526020600020905b8160009054906101000a900473ffffffffffffffffffffffffffffffffffffffff1673ffffffffffffffffffffffffffffffffffffffff1681526020019060010190808311612461575b50505050508152505090506040518060000190506040518091039020836040516020018082805190602001908083835b602083106124fe57805182526020820191506020810190506020830392506124db565b6001836020036101000a03801982511681845116808217855250505050505090500191505060405160208183030381529060405280519060200120141561254457600080fd5b60008260ff1611801561255a575060648260ff16105b61256357600080fd5b600073ffffffffffffffffffffffffffffffffffffffff16816040015173ffffffffffffffffffffffffffffffffffffffff1611156125a157600080fd5b6040518060a001604052808481526020018360ff1681526020013373ffffffffffffffffffffffffffffffffffffffff16815260200160006040519080825280602002602001820160405280156126075781602001602082028038833980820191505090505b508152602001600060405190808252806020026020018201604052801561263d5781602001602082028038833980820191505090505b50815250600260003373ffffffffffffffffffffffffffffffffffffffff1673ffffffffffffffffffffffffffffffffffffffff168152602001908152602001600020600082015181600001908051906020019061269c929190614c69565b5060208201518160010160006101000a81548160ff021916908360ff16021790555060408201518160010160016101000a81548173ffffffffffffffffffffffffffffffffffffffff021916908373ffffffffffffffffffffffffffffffffffffffff1602179055506060820151816002019080519060200190612721929190614d73565b50608082015181600301908051906020019061273e929190614ce9565b50905050505050565b606080600660009054906101000a900473ffffffffffffffffffffffffffffffffffffffff1673ffffffffffffffffffffffffffffffffffffffff163373ffffffffffffffffffffffffffffffffffffffff16146127a457600080fd5b836127ad614bea565b600260008373ffffffffffffffffffffffffffffffffffffffff1673ffffffffffffffffffffffffffffffffffffffff1681526020019081526020016000206040518060a0016040529081600082018054600181600116156101000203166002900480601f0160208091040260200160405190810160405280929190818152602001828054600181600116156101000203166002900480156128905780601f1061286557610100808354040283529160200191612890565b820191906000526020600020905b81548152906001019060200180831161287357829003601f168201915b505050505081526020016001820160009054906101000a900460ff1660ff1660ff1681526020016001820160019054906101000a900473ffffffffffffffffffffffffffffffffffffffff1673ffffffffffffffffffffffffffffffffffffffff1673ffffffffffffffffffffffffffffffffffffffff1681526020016002820180548060200260200160405190810160405280929190818152602001828054801561295b57602002820191906000526020600020905b815481526020019060010190808311612947575b50505050508152602001600382018054806020026020016040519081016040528092919081815260200182805480156129e957602002820191906000526020600020905b8160009054906101000a900473ffffffffffffffffffffffffffffffffffffffff1673ffffffffffffffffffffffffffffffffffffffff168152602001906001019080831161299f575b5050505050815250509050600073ffffffffffffffffffffffffffffffffffffffff16816040015173ffffffffffffffffffffffffffffffffffffffff1611612a3157600080fd5b86612a3a614c32565b6000808373ffffffffffffffffffffffffffffffffffffffff1673ffffffffffffffffffffffffffffffffffffffff168152602001908152602001600020604051806060016040529081600082018054600181600116156101000203166002900480601f016020809104026020016040519081016040528092919081815260200182805460018160011615610100020316600290048015612b1c5780601f10612af157610100808354040283529160200191612b1c565b820191906000526020600020905b815481529060010190602001808311612aff57829003601f168201915b505050505081526020016001820160009054906101000a900473ffffffffffffffffffffffffffffffffffffffff1673ffffffffffffffffffffffffffffffffffffffff1673ffffffffffffffffffffffffffffffffffffffff16815260200160028201805480602002602001604051908101604052809291908181526020018280548015612c0057602002820191906000526020600020905b8160009054906101000a900473ffffffffffffffffffffffffffffffffffffffff1673ffffffffffffffffffffffffffffffffffffffff1681526020019060010190808311612bb6575b5050505050815250509050600073ffffffffffffffffffffffffffffffffffffffff16816020015173ffffffffffffffffffffffffffffffffffffffff1611612c4857600080fd5b6040518060400160405280600681526020017f646f63746f72000000000000000000000000000000000000000000000000000081525089888a600060405180807f646f63746f72000000000000000000000000000000000000000000000000000081525060060190506040518091039020856040516020018082805190602001908083835b60208310612cf05780518252602082019150602081019050602083039250612ccd565b6001836020036101000a038019825116818451168082178552505050505050905001915050604051602081830303815290604052805190602001201415612e1f576000600360008473ffffffffffffffffffffffffffffffffffffffff1673ffffffffffffffffffffffffffffffffffffffff16815260200190815260200160002060008673ffffffffffffffffffffffffffffffffffffffff1673ffffffffffffffffffffffffffffffffffffffff1681526020019081526020016000205411612dba57600080fd5b600460008373ffffffffffffffffffffffffffffffffffffffff1673ffffffffffffffffffffffffffffffffffffffff168152602001908152602001600020600084815260200190815260200160002054905060008111612e1a57600080fd5b612f2f565b60405180807f70617469656e740000000000000000000000000000000000000000000000000081525060070190506040518091039020856040516020018082805190602001908083835b60208310612e8c5780518252602082019150602081019050602083039250612e69565b6001836020036101000a038019825116818451168082178552505050505050905001915050604051602081830303815290604052805190602001201415612f2e57600460008573ffffffffffffffffffffffffffffffffffffffff1673ffffffffffffffffffffffffffffffffffffffff168152602001908152602001600020600084815260200190815260200160002054905060008111612f2d57600080fd5b5b5b612f37614dc0565b612f408d614913565b9050806000015181602001518191508090509b509b5050505050505050505050935093915050565b33612f71614bea565b600260008373ffffffffffffffffffffffffffffffffffffffff1673ffffffffffffffffffffffffffffffffffffffff1681526020019081526020016000206040518060a0016040529081600082018054600181600116156101000203166002900480601f0160208091040260200160405190810160405280929190818152602001828054600181600116156101000203166002900480156130545780601f1061302957610100808354040283529160200191613054565b820191906000526020600020905b81548152906001019060200180831161303757829003601f168201915b505050505081526020016001820160009054906101000a900460ff1660ff1660ff1681526020016001820160019054906101000a900473ffffffffffffffffffffffffffffffffffffffff1673ffffffffffffffffffffffffffffffffffffffff1673ffffffffffffffffffffffffffffffffffffffff1681526020016002820180548060200260200160405190810160405280929190818152602001828054801561311f57602002820191906000526020600020905b81548152602001906001019080831161310b575b50505050508152602001600382018054806020026020016040519081016040528092919081815260200182805480156131ad57602002820191906000526020600020905b8160009054906101000a900473ffffffffffffffffffffffffffffffffffffffff1673ffffffffffffffffffffffffffffffffffffffff1681526020019060010190808311613163575b5050505050815250509050600073ffffffffffffffffffffffffffffffffffffffff16816040015173ffffffffffffffffffffffffffffffffffffffff16116131f557600080fd5b6000600260003373ffffffffffffffffffffffffffffffffffffffff1673ffffffffffffffffffffffffffffffffffffffff16815260200190815260200160002090506001600460003373ffffffffffffffffffffffffffffffffffffffff1673ffffffffffffffffffffffffffffffffffffffff1681526020019081526020016000206000878152602001908152602001600020541061329557600080fd5b6040518060600160405280888152602001878152602001858152506005600087815260200190815260200160002060008201518160000190805190602001906132df929190614c69565b5060208201518160010190805190602001906132fc929190614c69565b506040820151816002019080519060200190613319929190614c69565b509050506000816002018690806001815401808255809150509060018203906000526020600020016000909192909190915055905080600460003373ffffffffffffffffffffffffffffffffffffffff1673ffffffffffffffffffffffffffffffffffffffff1681526020019081526020016000206000888152602001908152602001600020819055505050505050505050565b606080600660009054906101000a900473ffffffffffffffffffffffffffffffffffffffff1673ffffffffffffffffffffffffffffffffffffffff163373ffffffffffffffffffffffffffffffffffffffff161461340a57600080fd5b83613413614bea565b600260008373ffffffffffffffffffffffffffffffffffffffff1673ffffffffffffffffffffffffffffffffffffffff1681526020019081526020016000206040518060a0016040529081600082018054600181600116156101000203166002900480601f0160208091040260200160405190810160405280929190818152602001828054600181600116156101000203166002900480156134f65780601f106134cb576101008083540402835291602001916134f6565b820191906000526020600020905b8154815290600101906020018083116134d957829003601f168201915b505050505081526020016001820160009054906101000a900460ff1660ff1660ff1681526020016001820160019054906101000a900473ffffffffffffffffffffffffffffffffffffffff1673ffffffffffffffffffffffffffffffffffffffff1673ffffffffffffffffffffffffffffffffffffffff168152602001600282018054806020026020016040519081016040528092919081815260200182805480156135c157602002820191906000526020600020905b8154815260200190600101908083116135ad575b505050505081526020016003820180548060200260200160405190810160405280929190818152602001828054801561364f57602002820191906000526020600020905b8160009054906101000a900473ffffffffffffffffffffffffffffffffffffffff1673ffffffffffffffffffffffffffffffffffffffff1681526020019060010190808311613605575b5050505050815250509050600073ffffffffffffffffffffffffffffffffffffffff16816040015173ffffffffffffffffffffffffffffffffffffffff161161369757600080fd5b6040518060400160405280600781526020017f70617469656e7400000000000000000000000000000000000000000000000000815250868688600060405180807f646f63746f72000000000000000000000000000000000000000000000000000081525060060190506040518091039020856040516020018082805190602001908083835b6020831061373f578051825260208201915060208101905060208303925061371c565b6001836020036101000a03801982511681845116808217855250505050505090500191505060405160208183030381529060405280519060200120141561386e576000600360008473ffffffffffffffffffffffffffffffffffffffff1673ffffffffffffffffffffffffffffffffffffffff16815260200190815260200160002060008673ffffffffffffffffffffffffffffffffffffffff1673ffffffffffffffffffffffffffffffffffffffff168152602001908152602001600020541161380957600080fd5b600460008373ffffffffffffffffffffffffffffffffffffffff1673ffffffffffffffffffffffffffffffffffffffff16815260200190815260200160002060008481526020019081526020016000205490506000811161386957600080fd5b61397e565b60405180807f70617469656e740000000000000000000000000000000000000000000000000081525060070190506040518091039020856040516020018082805190602001908083835b602083106138db57805182526020820191506020810190506020830392506138b8565b6001836020036101000a03801982511681845116808217855250505050505090500191505060405160208183030381529060405280519060200120141561397d57600460008573ffffffffffffffffffffffffffffffffffffffff1673ffffffffffffffffffffffffffffffffffffffff16815260200190815260200160002060008481526020019081526020016000205490506000811161397c57600080fd5b5b5b613986614dc0565b61398f8b614913565b9050806000015181602001518191508090509950995050505050505050509250929050565b606080336139c0614c32565b6000808373ffffffffffffffffffffffffffffffffffffffff1673ffffffffffffffffffffffffffffffffffffffff168152602001908152602001600020604051806060016040529081600082018054600181600116156101000203166002900480601f016020809104026020016040519081016040528092919081815260200182805460018160011615610100020316600290048015613aa25780601f10613a7757610100808354040283529160200191613aa2565b820191906000526020600020905b815481529060010190602001808311613a8557829003601f168201915b505050505081526020016001820160009054906101000a900473ffffffffffffffffffffffffffffffffffffffff1673ffffffffffffffffffffffffffffffffffffffff1673ffffffffffffffffffffffffffffffffffffffff16815260200160028201805480602002602001604051908101604052809291908181526020018280548015613b8657602002820191906000526020600020905b8160009054906101000a900473ffffffffffffffffffffffffffffffffffffffff1673ffffffffffffffffffffffffffffffffffffffff1681526020019060010190808311613b3c575b5050505050815250509050600073ffffffffffffffffffffffffffffffffffffffff16816020015173ffffffffffffffffffffffffffffffffffffffff1611613bce57600080fd5b613bd6614c32565b6000803373ffffffffffffffffffffffffffffffffffffffff1673ffffffffffffffffffffffffffffffffffffffff168152602001908152602001600020604051806060016040529081600082018054600181600116156101000203166002900480601f016020809104026020016040519081016040528092919081815260200182805460018160011615610100020316600290048015613cb85780601f10613c8d57610100808354040283529160200191613cb8565b820191906000526020600020905b815481529060010190602001808311613c9b57829003601f168201915b505050505081526020016001820160009054906101000a900473ffffffffffffffffffffffffffffffffffffffff1673ffffffffffffffffffffffffffffffffffffffff1673ffffffffffffffffffffffffffffffffffffffff16815260200160028201805480602002602001604051908101604052809291908181526020018280548015613d9c57602002820191906000526020600020905b8160009054906101000a900473ffffffffffffffffffffffffffffffffffffffff1673ffffffffffffffffffffffffffffffffffffffff1681526020019060010190808311613d52575b505050505081525050905080600001518160400151819150809050945094505050509091565b6060846060600560008381526020019081526020016000206000018054600181600116156101000203166002900480601f016020809104026020016040519081016040528092919081815260200182805460018160011615610100020316600290048015613e715780601f10613e4657610100808354040283529160200191613e71565b820191906000526020600020905b815481529060010190602001808311613e5457829003601f168201915b505050505090506000815111613e8657600080fd5b85858886600060405180807f646f63746f72000000000000000000000000000000000000000000000000000081525060060190506040518091039020856040516020018082805190602001908083835b60208310613ef95780518252602082019150602081019050602083039250613ed6565b6001836020036101000a038019825116818451168082178552505050505050905001915050604051602081830303815290604052805190602001201415614028576000600360008473ffffffffffffffffffffffffffffffffffffffff1673ffffffffffffffffffffffffffffffffffffffff16815260200190815260200160002060008673ffffffffffffffffffffffffffffffffffffffff1673ffffffffffffffffffffffffffffffffffffffff1681526020019081526020016000205411613fc357600080fd5b600460008373ffffffffffffffffffffffffffffffffffffffff1673ffffffffffffffffffffffffffffffffffffffff16815260200190815260200160002060008481526020019081526020016000205490506000811161402357600080fd5b614138565b60405180807f70617469656e740000000000000000000000000000000000000000000000000081525060070190506040518091039020856040516020018082805190602001908083835b602083106140955780518252602082019150602081019050602083039250614072565b6001836020036101000a03801982511681845116808217855250505050505090500191505060405160208183030381529060405280519060200120141561413757600460008573ffffffffffffffffffffffffffffffffffffffff1673ffffffffffffffffffffffffffffffffffffffff16815260200190815260200160002060008481526020019081526020016000205490506000811161413657600080fd5b5b5b614140614dc0565b6141498d614913565b9050806040015198505050505050505050949350505050565b6060600080606084614172614bea565b600260008373ffffffffffffffffffffffffffffffffffffffff1673ffffffffffffffffffffffffffffffffffffffff1681526020019081526020016000206040518060a0016040529081600082018054600181600116156101000203166002900480601f0160208091040260200160405190810160405280929190818152602001828054600181600116156101000203166002900480156142555780601f1061422a57610100808354040283529160200191614255565b820191906000526020600020905b81548152906001019060200180831161423857829003601f168201915b505050505081526020016001820160009054906101000a900460ff1660ff1660ff1681526020016001820160019054906101000a900473ffffffffffffffffffffffffffffffffffffffff1673ffffffffffffffffffffffffffffffffffffffff1673ffffffffffffffffffffffffffffffffffffffff1681526020016002820180548060200260200160405190810160405280929190818152602001828054801561432057602002820191906000526020600020905b81548152602001906001019080831161430c575b50505050508152602001600382018054806020026020016040519081016040528092919081815260200182805480156143ae57602002820191906000526020600020905b8160009054906101000a900473ffffffffffffffffffffffffffffffffffffffff1673ffffffffffffffffffffffffffffffffffffffff1681526020019060010190808311614364575b5050505050815250509050600073ffffffffffffffffffffffffffffffffffffffff16816040015173ffffffffffffffffffffffffffffffffffffffff16116143f657600080fd5b336143ff614c32565b6000808373ffffffffffffffffffffffffffffffffffffffff1673ffffffffffffffffffffffffffffffffffffffff168152602001908152602001600020604051806060016040529081600082018054600181600116156101000203166002900480601f0160208091040260200160405190810160405280929190818152602001828054600181600116156101000203166002900480156144e15780601f106144b6576101008083540402835291602001916144e1565b820191906000526020600020905b8154815290600101906020018083116144c457829003601f168201915b505050505081526020016001820160009054906101000a900473ffffffffffffffffffffffffffffffffffffffff1673ffffffffffffffffffffffffffffffffffffffff1673ffffffffffffffffffffffffffffffffffffffff168152602001600282018054806020026020016040519081016040528092919081815260200182805480156145c557602002820191906000526020600020905b8160009054906101000a900473ffffffffffffffffffffffffffffffffffffffff1673ffffffffffffffffffffffffffffffffffffffff168152602001906001019080831161457b575b5050505050815250509050600073ffffffffffffffffffffffffffffffffffffffff16816020015173ffffffffffffffffffffffffffffffffffffffff161161460d57600080fd5b614615614bea565b600260008b73ffffffffffffffffffffffffffffffffffffffff1673ffffffffffffffffffffffffffffffffffffffff1681526020019081526020016000206040518060a0016040529081600082018054600181600116156101000203166002900480601f0160208091040260200160405190810160405280929190818152602001828054600181600116156101000203166002900480156146f85780601f106146cd576101008083540402835291602001916146f8565b820191906000526020600020905b8154815290600101906020018083116146db57829003601f168201915b505050505081526020016001820160009054906101000a900460ff1660ff1660ff1681526020016001820160019054906101000a900473ffffffffffffffffffffffffffffffffffffffff1673ffffffffffffffffffffffffffffffffffffffff1673ffffffffffffffffffffffffffffffffffffffff168152602001600282018054806020026020016040519081016040528092919081815260200182805480156147c357602002820191906000526020600020905b8154815260200190600101908083116147af575b505050505081526020016003820180548060200260200160405190810160405280929190818152602001828054801561485157602002820191906000526020600020905b8160009054906101000a900473ffffffffffffffffffffffffffffffffffffffff1673ffffffffffffffffffffffffffffffffffffffff1681526020019060010190808311614807575b50505050508152505090506000600360008c73ffffffffffffffffffffffffffffffffffffffff1673ffffffffffffffffffffffffffffffffffffffff16815260200190815260200160002060003373ffffffffffffffffffffffffffffffffffffffff1673ffffffffffffffffffffffffffffffffffffffff16815260200190815260200160002054116148e557600080fd5b8060000151816020015182604001518360600151839350809050985098509850985050505050509193509193565b61491b614dc0565b816060600560008381526020019081526020016000206000018054600181600116156101000203166002900480601f0160208091040260200160405190810160405280929190818152602001828054600181600116156101000203166002900480156149c85780601f1061499d576101008083540402835291602001916149c8565b820191906000526020600020905b8154815290600101906020018083116149ab57829003601f168201915b5050505050905060008151116149dd57600080fd5b60056000858152602001908152602001600020604051806060016040529081600082018054600181600116156101000203166002900480601f016020809104026020016040519081016040528092919081815260200182805460018160011615610100020316600290048015614a945780601f10614a6957610100808354040283529160200191614a94565b820191906000526020600020905b815481529060010190602001808311614a7757829003601f168201915b50505050508152602001600182018054600181600116156101000203166002900480601f016020809104026020016040519081016040528092919081815260200182805460018160011615610100020316600290048015614b365780601f10614b0b57610100808354040283529160200191614b36565b820191906000526020600020905b815481529060010190602001808311614b1957829003601f168201915b50505050508152602001600282018054600181600116156101000203166002900480601f016020809104026020016040519081016040528092919081815260200182805460018160011615610100020316600290048015614bd85780601f10614bad57610100808354040283529160200191614bd8565b820191906000526020600020905b815481529060010190602001808311614bbb57829003601f168201915b50505050508152505092505050919050565b6040518060a0016040528060608152602001600060ff168152602001600073ffffffffffffffffffffffffffffffffffffffff16815260200160608152602001606081525090565b604051806060016040528060608152602001600073ffffffffffffffffffffffffffffffffffffffff168152602001606081525090565b828054600181600116156101000203166002900490600052602060002090601f016020900481019282601f10614caa57805160ff1916838001178555614cd8565b82800160010185558215614cd8579182015b82811115614cd7578251825591602001919060010190614cbc565b5b509050614ce59190614de1565b5090565b828054828255906000526020600020908101928215614d62579160200282015b82811115614d615782518260006101000a81548173ffffffffffffffffffffffffffffffffffffffff021916908373ffffffffffffffffffffffffffffffffffffffff16021790555091602001919060010190614d09565b5b509050614d6f9190614e06565b5090565b828054828255906000526020600020908101928215614daf579160200282015b82811115614dae578251825591602001919060010190614d93565b5b509050614dbc9190614e49565b5090565b60405180606001604052806060815260200160608152602001606081525090565b614e0391905b80821115614dff576000816000905550600101614de7565b5090565b90565b614e4691905b80821115614e4257600081816101000a81549073ffffffffffffffffffffffffffffffffffffffff021916905550600101614e0c565b5090565b90565b614e6b91905b80821115614e67576000816000905550600101614e4f565b5090565b9056fea265627a7a7231582097377edd012b852f5ab868819d2d50c1476e8c7f36d44055938380082a8dbec764736f6c63430005100032",
  "source": "pragma solidity >=0.4.21 <0.7.0;\n\nimport \"./doctor.sol\";\nimport \"./patient.sol\";\nimport \"./file.sol\";\n\ncontract HealthCare is Doctor, Patient, File {\n    address private owner;\n    \n    constructor() public{\n        owner = msg.sender;\n    }\n    \n    modifier onlyOwner() {\n        require(msg.sender == owner);\n        _;\n    }\n    \n    modifier checkFileAccess(string memory role, address id, bytes32 fileHashId, address pat) {\n        uint pos;\n        if(keccak256(abi.encodePacked(role)) == keccak256(\"doctor\")) {\n            require(patientToDoctor[pat][id] > 0);\n            pos = patientToFile[pat][fileHashId];\n            require(pos > 0);   \n        }\n        else if(keccak256(abi.encodePacked(role)) == keccak256(\"patient\")) {\n            pos = patientToFile[id][fileHashId];\n            require(pos > 0);\n        }\n        _; \n    }\n    \n    function checkProfile(address _user) public view onlyOwner returns(string memory, string memory){\n        patient memory p = patients[_user];\n        doctor memory d = doctors[_user];\n          \n        if(p.id > address(0x0))\n            return (p.name, 'patient');\n        else if(d.id > address(0x0))\n            return (d.name, 'doctor');\n        else\n            return ('', '');\n    }\n  \n    function grantAccessToDoctor(address doctor_id) public checkPatient(msg.sender) checkDoctor(doctor_id)  {\n        patient storage p = patients[msg.sender];\n        doctor storage d = doctors[doctor_id];\n        require(patientToDoctor[msg.sender][doctor_id] < 1);// this means doctor already been access\n      \n        uint pos = p.doctor_list.push(doctor_id);// new length of array\n\n        patientToDoctor[msg.sender][doctor_id] = pos;\n        d.patient_list.push(msg.sender);\n    }\n  \n    function addFile(string memory _file_name, string memory _file_type, bytes32 _fileHash, string memory _file_secret) public checkPatient(msg.sender) {\n        patient storage  p = patients[msg.sender];\n\n        require(patientToFile[msg.sender][_fileHash] < 1);\n      \n        hashToFile[_fileHash] = filesInfo({file_name:_file_name, file_type:_file_type,file_secret:_file_secret});\n        uint pos = p.files.push(_fileHash);\n        patientToFile[msg.sender][_fileHash] = pos;\n    }\n    \n    function getPatientInfoForDoctor(address pat) public view checkPatient(pat) checkDoctor(msg.sender) returns(string memory , uint8, address, bytes32[] memory ){\n        patient memory p = patients[pat];\n\n        require(patientToDoctor[pat][msg.sender] > 0);\n\n        return (p.name, p.age, p.id, p.files);\n    }\n    \n    function getFileSecret(bytes32 fileHashId, string memory role, address id, address pat) public view \n    checkFile(fileHashId) checkFileAccess(role, id, fileHashId, pat)\n    returns(string memory ) {\n        filesInfo memory f = getFileInfo(fileHashId);\n        return (f.file_secret);\n    }\n\n    function getFileInfoDoctor(address doc, address pat, bytes32 fileHashId) public view \n    onlyOwner checkPatient(pat) checkDoctor(doc) checkFileAccess(\"doctor\", doc, fileHashId, pat)\n    returns(string memory , string memory ) {\n        filesInfo memory f = getFileInfo(fileHashId);\n        return (f.file_name, f.file_type);\n    }\n  \n    function getFileInfoPatient(address pat, bytes32 fileHashId) public view \n    onlyOwner checkPatient(pat) checkFileAccess(\"patient\", pat, fileHashId, pat) returns(string memory , string memory ) {\n        filesInfo memory f = getFileInfo(fileHashId);\n        return (f.file_name, f.file_type);\n    }\n  \n}",
  "sourcePath": "D:\\test\\test\\contracts\\healthCare.sol",
  "compiler": {
    "name": "solc",
    "version": "0.5.16+commit.9c3226ce.Emscripten.clang"
  },
  "schemaVersion": "3.0.23",
  "updatedAt": "2020-04-28T14:50:37.819Z",
  "devdoc": {
    "methods": {}
  },
  "userdoc": {
    "methods": {}
  }
}