{
  "contractName": "optimized_healthCare",
  "abi": [
    {
      "inputs": [],
      "payable": false,
      "stateMutability": "nonpayable",
      "type": "constructor"
    },
    {
      "constant": false,
      "inputs": [
        {
          "internalType": "string",
          "name": "_name",
          "type": "string"
        },
        {
          "internalType": "uint8",
          "name": "_age",
          "type": "uint8"
        }
      ],
      "name": "signupPatient",
      "outputs": [],
      "payable": false,
      "stateMutability": "nonpayable",
      "type": "function"
    },
    {
      "constant": false,
      "inputs": [
        {
          "internalType": "string",
          "name": "_name",
          "type": "string"
        }
      ],
      "name": "signupDoctor",
      "outputs": [],
      "payable": false,
      "stateMutability": "nonpayable",
      "type": "function"
    },
    {
      "constant": false,
      "inputs": [
        {
          "internalType": "address",
          "name": "doctor_id",
          "type": "address"
        }
      ],
      "name": "grantAccessToDoctor",
      "outputs": [],
      "payable": false,
      "stateMutability": "nonpayable",
      "type": "function"
    },
    {
      "constant": false,
      "inputs": [
        {
          "internalType": "string",
          "name": "_file_name",
          "type": "string"
        },
        {
          "internalType": "string",
          "name": "_file_type",
          "type": "string"
        },
        {
          "internalType": "bytes32",
          "name": "_fileHash",
          "type": "bytes32"
        },
        {
          "internalType": "string",
          "name": "_file_secret",
          "type": "string"
        }
      ],
      "name": "addFile",
      "outputs": [],
      "payable": false,
      "stateMutability": "nonpayable",
      "type": "function"
    },
    {
      "constant": false,
      "inputs": [
        {
          "internalType": "string",
          "name": "_file_name",
          "type": "string"
        },
        {
          "internalType": "string",
          "name": "_file_type",
          "type": "string"
        },
        {
          "internalType": "string",
          "name": "_file_hash",
          "type": "string"
        }
      ],
      "name": "addUserFiles",
      "outputs": [],
      "payable": false,
      "stateMutability": "nonpayable",
      "type": "function"
    },
    {
      "constant": true,
      "inputs": [
        {
          "internalType": "address",
          "name": "sender",
          "type": "address"
        }
      ],
      "name": "getUserFiles",
      "outputs": [
        {
          "components": [
            {
              "internalType": "string",
              "name": "file_name",
              "type": "string"
            },
            {
              "internalType": "string",
              "name": "file_type",
              "type": "string"
            },
            {
              "internalType": "string",
              "name": "file_hash",
              "type": "string"
            }
          ],
          "internalType": "struct optimized_healthCare.files[]",
          "name": "",
          "type": "tuple[]"
        }
      ],
      "payable": false,
      "stateMutability": "view",
      "type": "function"
    },
    {
      "constant": true,
      "inputs": [],
      "name": "getPatientInfo",
      "outputs": [
        {
          "internalType": "string",
          "name": "",
          "type": "string"
        },
        {
          "internalType": "address",
          "name": "",
          "type": "address"
        },
        {
          "internalType": "uint8",
          "name": "",
          "type": "uint8"
        },
        {
          "internalType": "bytes32[]",
          "name": "",
          "type": "bytes32[]"
        },
        {
          "internalType": "address[]",
          "name": "",
          "type": "address[]"
        }
      ],
      "payable": false,
      "stateMutability": "view",
      "type": "function"
    },
    {
      "constant": true,
      "inputs": [],
      "name": "getDoctorInfo",
      "outputs": [
        {
          "internalType": "string",
          "name": "",
          "type": "string"
        },
        {
          "internalType": "address",
          "name": "",
          "type": "address"
        },
        {
          "internalType": "address[]",
          "name": "",
          "type": "address[]"
        }
      ],
      "payable": false,
      "stateMutability": "view",
      "type": "function"
    },
    {
      "constant": true,
      "inputs": [
        {
          "internalType": "address",
          "name": "_user",
          "type": "address"
        }
      ],
      "name": "checkProfile",
      "outputs": [
        {
          "internalType": "string",
          "name": "",
          "type": "string"
        },
        {
          "internalType": "string",
          "name": "",
          "type": "string"
        }
      ],
      "payable": false,
      "stateMutability": "view",
      "type": "function"
    },
    {
      "constant": true,
      "inputs": [
        {
          "internalType": "address",
          "name": "pat",
          "type": "address"
        }
      ],
      "name": "getPatientInfoForDoctor",
      "outputs": [
        {
          "internalType": "string",
          "name": "",
          "type": "string"
        },
        {
          "internalType": "uint8",
          "name": "",
          "type": "uint8"
        },
        {
          "internalType": "address",
          "name": "",
          "type": "address"
        },
        {
          "components": [
            {
              "internalType": "string",
              "name": "file_name",
              "type": "string"
            },
            {
              "internalType": "string",
              "name": "file_type",
              "type": "string"
            },
            {
              "internalType": "string",
              "name": "file_hash",
              "type": "string"
            }
          ],
          "internalType": "struct optimized_healthCare.files[]",
          "name": "",
          "type": "tuple[]"
        }
      ],
      "payable": false,
      "stateMutability": "view",
      "type": "function"
    },
    {
      "constant": true,
      "inputs": [
        {
          "internalType": "bytes32",
          "name": "fileHashId",
          "type": "bytes32"
        },
        {
          "internalType": "string",
          "name": "role",
          "type": "string"
        },
        {
          "internalType": "address",
          "name": "id",
          "type": "address"
        },
        {
          "internalType": "address",
          "name": "pat",
          "type": "address"
        }
      ],
      "name": "getFileSecret",
      "outputs": [
        {
          "internalType": "string",
          "name": "",
          "type": "string"
        }
      ],
      "payable": false,
      "stateMutability": "view",
      "type": "function"
    },
    {
      "constant": true,
      "inputs": [
        {
          "internalType": "address",
          "name": "doc",
          "type": "address"
        },
        {
          "internalType": "address",
          "name": "pat",
          "type": "address"
        },
        {
          "internalType": "bytes32",
          "name": "fileHashId",
          "type": "bytes32"
        }
      ],
      "name": "getFileInfoDoctor",
      "outputs": [
        {
          "internalType": "string",
          "name": "",
          "type": "string"
        },
        {
          "internalType": "string",
          "name": "",
          "type": "string"
        }
      ],
      "payable": false,
      "stateMutability": "view",
      "type": "function"
    },
    {
      "constant": true,
      "inputs": [
        {
          "internalType": "address",
          "name": "pat",
          "type": "address"
        },
        {
          "internalType": "bytes32",
          "name": "fileHashId",
          "type": "bytes32"
        }
      ],
      "name": "getFileInfoPatient",
      "outputs": [
        {
          "internalType": "string",
          "name": "",
          "type": "string"
        },
        {
          "internalType": "string",
          "name": "",
          "type": "string"
        }
      ],
      "payable": false,
      "stateMutability": "view",
      "type": "function"
    }
  ],
  "bytecode": "0x608060405234801561001057600080fd5b50336000806101000a81548173ffffffffffffffffffffffffffffffffffffffff021916908373ffffffffffffffffffffffffffffffffffffffff160217905550615479806100606000396000f3fe608060405234801561001057600080fd5b50600436106100cf5760003560e01c80637120203a1161008c578063b259832d11610066578063b259832d14610214578063b380f5c614610245578063cf954d4514610265578063fe59cc1a14610295576100cf565b80637120203a146101ab5780637f34cf94146101c75780639f6a7a11146101f8576100cf565b806301d99258146100d45780631c8e251c146101055780631fc37922146101215780632ae48e4014610151578063326df6641461016d5780636459d52f1461018f575b600080fd5b6100ee60048036036100e991908101906149eb565b6102c8565b6040516100fc929190615184565b60405180910390f35b61011f600480360361011a91908101906149eb565b61087d565b005b61013b600480360361013691908101906149eb565b610f96565b6040516101489190615093565b60405180910390f35b61016b60048036036101669190810190614c06565b61121a565b005b61017561158d565b60405161018695949392919061511c565b60405180910390f35b6101a960048036036101a49190810190614b1a565b611aa7565b005b6101c560048036036101c09190810190614c9d565b611e2d565b005b6101e160048036036101dc9190810190614a14565b6122c5565b6040516101ef929190615184565b60405180910390f35b610212600480360361020d9190810190614b5b565b612a0c565b005b61022e60048036036102299190810190614a63565b612e51565b60405161023c929190615184565b60405180910390f35b61024d61337d565b60405161025c939291906150d7565b60405180910390f35b61027f600480360361027a9190810190614a9f565b613798565b60405161028c91906150b5565b60405180910390f35b6102af60048036036102aa91908101906149eb565b613a5e565b6040516102bf94939291906151bb565b60405180910390f35b6060806000809054906101000a900473ffffffffffffffffffffffffffffffffffffffff1673ffffffffffffffffffffffffffffffffffffffff163373ffffffffffffffffffffffffffffffffffffffff161461032457600080fd5b61032c6146d4565b600360008573ffffffffffffffffffffffffffffffffffffffff1673ffffffffffffffffffffffffffffffffffffffff1681526020019081526020016000206040518060a0016040529081600082018054600181600116156101000203166002900480601f01602080910402602001604051908101604052809291908181526020018280546001816001161561010002031660029004801561040f5780601f106103e45761010080835404028352916020019161040f565b820191906000526020600020905b8154815290600101906020018083116103f257829003601f168201915b505050505081526020016001820160009054906101000a900460ff1660ff1660ff1681526020016001820160019054906101000a900473ffffffffffffffffffffffffffffffffffffffff1673ffffffffffffffffffffffffffffffffffffffff1673ffffffffffffffffffffffffffffffffffffffff168152602001600282018054806020026020016040519081016040528092919081815260200182805480156104da57602002820191906000526020600020905b8154815260200190600101908083116104c6575b505050505081526020016003820180548060200260200160405190810160405280929190818152602001828054801561056857602002820191906000526020600020905b8160009054906101000a900473ffffffffffffffffffffffffffffffffffffffff1673ffffffffffffffffffffffffffffffffffffffff168152602001906001019080831161051e575b505050505081525050905061057b61471c565b600160008673ffffffffffffffffffffffffffffffffffffffff1673ffffffffffffffffffffffffffffffffffffffff168152602001908152602001600020604051806060016040529081600082018054600181600116156101000203166002900480601f01602080910402602001604051908101604052809291908181526020018280546001816001161561010002031660029004801561065e5780601f106106335761010080835404028352916020019161065e565b820191906000526020600020905b81548152906001019060200180831161064157829003601f168201915b505050505081526020016001820160009054906101000a900473ffffffffffffffffffffffffffffffffffffffff1673ffffffffffffffffffffffffffffffffffffffff1673ffffffffffffffffffffffffffffffffffffffff1681526020016002820180548060200260200160405190810160405280929190818152602001828054801561074257602002820191906000526020600020905b8160009054906101000a900473ffffffffffffffffffffffffffffffffffffffff1673ffffffffffffffffffffffffffffffffffffffff16815260200190600101908083116106f8575b5050505050815250509050600073ffffffffffffffffffffffffffffffffffffffff16826040015173ffffffffffffffffffffffffffffffffffffffff1611156107cf5781600001518090506040518060400160405280600781526020017f70617469656e7400000000000000000000000000000000000000000000000000815250935093505050610878565b600073ffffffffffffffffffffffffffffffffffffffff16816020015173ffffffffffffffffffffffffffffffffffffffff1611156108515780600001518090506040518060400160405280600681526020017f646f63746f720000000000000000000000000000000000000000000000000000815250935093505050610878565b60405180602001604052806000815250604051806020016040528060008152509350935050505b915091565b336108866146d4565b600360008373ffffffffffffffffffffffffffffffffffffffff1673ffffffffffffffffffffffffffffffffffffffff1681526020019081526020016000206040518060a0016040529081600082018054600181600116156101000203166002900480601f0160208091040260200160405190810160405280929190818152602001828054600181600116156101000203166002900480156109695780601f1061093e57610100808354040283529160200191610969565b820191906000526020600020905b81548152906001019060200180831161094c57829003601f168201915b505050505081526020016001820160009054906101000a900460ff1660ff1660ff1681526020016001820160019054906101000a900473ffffffffffffffffffffffffffffffffffffffff1673ffffffffffffffffffffffffffffffffffffffff1673ffffffffffffffffffffffffffffffffffffffff16815260200160028201805480602002602001604051908101604052809291908181526020018280548015610a3457602002820191906000526020600020905b815481526020019060010190808311610a20575b5050505050815260200160038201805480602002602001604051908101604052809291908181526020018280548015610ac257602002820191906000526020600020905b8160009054906101000a900473ffffffffffffffffffffffffffffffffffffffff1673ffffffffffffffffffffffffffffffffffffffff1681526020019060010190808311610a78575b5050505050815250509050600073ffffffffffffffffffffffffffffffffffffffff16816040015173ffffffffffffffffffffffffffffffffffffffff1611610b0a57600080fd5b82610b1361471c565b600160008373ffffffffffffffffffffffffffffffffffffffff1673ffffffffffffffffffffffffffffffffffffffff168152602001908152602001600020604051806060016040529081600082018054600181600116156101000203166002900480601f016020809104026020016040519081016040528092919081815260200182805460018160011615610100020316600290048015610bf65780601f10610bcb57610100808354040283529160200191610bf6565b820191906000526020600020905b815481529060010190602001808311610bd957829003601f168201915b505050505081526020016001820160009054906101000a900473ffffffffffffffffffffffffffffffffffffffff1673ffffffffffffffffffffffffffffffffffffffff1673ffffffffffffffffffffffffffffffffffffffff16815260200160028201805480602002602001604051908101604052809291908181526020018280548015610cda57602002820191906000526020600020905b8160009054906101000a900473ffffffffffffffffffffffffffffffffffffffff1673ffffffffffffffffffffffffffffffffffffffff1681526020019060010190808311610c90575b5050505050815250509050600073ffffffffffffffffffffffffffffffffffffffff16816020015173ffffffffffffffffffffffffffffffffffffffff1611610d2257600080fd5b6000600360003373ffffffffffffffffffffffffffffffffffffffff1673ffffffffffffffffffffffffffffffffffffffff16815260200190815260200160002090506000600160008873ffffffffffffffffffffffffffffffffffffffff1673ffffffffffffffffffffffffffffffffffffffff16815260200190815260200160002090506001600460003373ffffffffffffffffffffffffffffffffffffffff1673ffffffffffffffffffffffffffffffffffffffff16815260200190815260200160002060008973ffffffffffffffffffffffffffffffffffffffff1673ffffffffffffffffffffffffffffffffffffffff1681526020019081526020016000205410610e3157600080fd5b6000826003018890806001815401808255809150509060018203906000526020600020016000909192909190916101000a81548173ffffffffffffffffffffffffffffffffffffffff021916908373ffffffffffffffffffffffffffffffffffffffff16021790555090508060088190555080600460003373ffffffffffffffffffffffffffffffffffffffff1673ffffffffffffffffffffffffffffffffffffffff16815260200190815260200160002060008a73ffffffffffffffffffffffffffffffffffffffff1673ffffffffffffffffffffffffffffffffffffffff16815260200190815260200160002081905550816002013390806001815401808255809150509060018203906000526020600020016000909192909190916101000a81548173ffffffffffffffffffffffffffffffffffffffff021916908373ffffffffffffffffffffffffffffffffffffffff160217905550505050505050505050565b6060600760008373ffffffffffffffffffffffffffffffffffffffff1673ffffffffffffffffffffffffffffffffffffffff168152602001908152602001600020805480602002602001604051908101604052809291908181526020016000905b8282101561120f5783829060005260206000209060030201604051806060016040529081600082018054600181600116156101000203166002900480601f0160208091040260200160405190810160405280929190818152602001828054600181600116156101000203166002900480156110b35780601f10611088576101008083540402835291602001916110b3565b820191906000526020600020905b81548152906001019060200180831161109657829003601f168201915b50505050508152602001600182018054600181600116156101000203166002900480601f0160208091040260200160405190810160405280929190818152602001828054600181600116156101000203166002900480156111555780601f1061112a57610100808354040283529160200191611155565b820191906000526020600020905b81548152906001019060200180831161113857829003601f168201915b50505050508152602001600282018054600181600116156101000203166002900480601f0160208091040260200160405190810160405280929190818152602001828054600181600116156101000203166002900480156111f75780601f106111cc576101008083540402835291602001916111f7565b820191906000526020600020905b8154815290600101906020018083116111da57829003601f168201915b50505050508152505081526020019060010190610ff7565b505050509050919050565b336112236146d4565b600360008373ffffffffffffffffffffffffffffffffffffffff1673ffffffffffffffffffffffffffffffffffffffff1681526020019081526020016000206040518060a0016040529081600082018054600181600116156101000203166002900480601f0160208091040260200160405190810160405280929190818152602001828054600181600116156101000203166002900480156113065780601f106112db57610100808354040283529160200191611306565b820191906000526020600020905b8154815290600101906020018083116112e957829003601f168201915b505050505081526020016001820160009054906101000a900460ff1660ff1660ff1681526020016001820160019054906101000a900473ffffffffffffffffffffffffffffffffffffffff1673ffffffffffffffffffffffffffffffffffffffff1673ffffffffffffffffffffffffffffffffffffffff168152602001600282018054806020026020016040519081016040528092919081815260200182805480156113d157602002820191906000526020600020905b8154815260200190600101908083116113bd575b505050505081526020016003820180548060200260200160405190810160405280929190818152602001828054801561145f57602002820191906000526020600020905b8160009054906101000a900473ffffffffffffffffffffffffffffffffffffffff1673ffffffffffffffffffffffffffffffffffffffff1681526020019060010190808311611415575b5050505050815250509050600073ffffffffffffffffffffffffffffffffffffffff16816040015173ffffffffffffffffffffffffffffffffffffffff16116114a757600080fd5b600760003373ffffffffffffffffffffffffffffffffffffffff1673ffffffffffffffffffffffffffffffffffffffff168152602001908152602001600020604051806060016040528087815260200186815260200185815250908060018154018082558091505090600182039060005260206000209060030201600090919290919091506000820151816000019080519060200190611548929190614753565b506020820151816001019080519060200190611565929190614753565b506040820151816002019080519060200190611582929190614753565b505050505050505050565b60606000806060803361159e6146d4565b600360008373ffffffffffffffffffffffffffffffffffffffff1673ffffffffffffffffffffffffffffffffffffffff1681526020019081526020016000206040518060a0016040529081600082018054600181600116156101000203166002900480601f0160208091040260200160405190810160405280929190818152602001828054600181600116156101000203166002900480156116815780601f1061165657610100808354040283529160200191611681565b820191906000526020600020905b81548152906001019060200180831161166457829003601f168201915b505050505081526020016001820160009054906101000a900460ff1660ff1660ff1681526020016001820160019054906101000a900473ffffffffffffffffffffffffffffffffffffffff1673ffffffffffffffffffffffffffffffffffffffff1673ffffffffffffffffffffffffffffffffffffffff1681526020016002820180548060200260200160405190810160405280929190818152602001828054801561174c57602002820191906000526020600020905b815481526020019060010190808311611738575b50505050508152602001600382018054806020026020016040519081016040528092919081815260200182805480156117da57602002820191906000526020600020905b8160009054906101000a900473ffffffffffffffffffffffffffffffffffffffff1673ffffffffffffffffffffffffffffffffffffffff1681526020019060010190808311611790575b5050505050815250509050600073ffffffffffffffffffffffffffffffffffffffff16816040015173ffffffffffffffffffffffffffffffffffffffff161161182257600080fd5b61182a6146d4565b600360003373ffffffffffffffffffffffffffffffffffffffff1673ffffffffffffffffffffffffffffffffffffffff1681526020019081526020016000206040518060a0016040529081600082018054600181600116156101000203166002900480601f01602080910402602001604051908101604052809291908181526020018280546001816001161561010002031660029004801561190d5780601f106118e25761010080835404028352916020019161190d565b820191906000526020600020905b8154815290600101906020018083116118f057829003601f168201915b505050505081526020016001820160009054906101000a900460ff1660ff1660ff1681526020016001820160019054906101000a900473ffffffffffffffffffffffffffffffffffffffff1673ffffffffffffffffffffffffffffffffffffffff1673ffffffffffffffffffffffffffffffffffffffff168152602001600282018054806020026020016040519081016040528092919081815260200182805480156119d857602002820191906000526020600020905b8154815260200190600101908083116119c4575b5050505050815260200160038201805480602002602001604051908101604052809291908181526020018280548015611a6657602002820191906000526020600020905b8160009054906101000a900473ffffffffffffffffffffffffffffffffffffffff1673ffffffffffffffffffffffffffffffffffffffff1681526020019060010190808311611a1c575b505050505081525050905080600001518160400151826020015183606001518460800151849450819150809050975097509750975097505050509091929394565b611aaf61471c565b600160003373ffffffffffffffffffffffffffffffffffffffff1673ffffffffffffffffffffffffffffffffffffffff168152602001908152602001600020604051806060016040529081600082018054600181600116156101000203166002900480601f016020809104026020016040519081016040528092919081815260200182805460018160011615610100020316600290048015611b925780601f10611b6757610100808354040283529160200191611b92565b820191906000526020600020905b815481529060010190602001808311611b7557829003601f168201915b505050505081526020016001820160009054906101000a900473ffffffffffffffffffffffffffffffffffffffff1673ffffffffffffffffffffffffffffffffffffffff1673ffffffffffffffffffffffffffffffffffffffff16815260200160028201805480602002602001604051908101604052809291908181526020018280548015611c7657602002820191906000526020600020905b8160009054906101000a900473ffffffffffffffffffffffffffffffffffffffff1673ffffffffffffffffffffffffffffffffffffffff1681526020019060010190808311611c2c575b5050505050815250509050604051611c8d90615054565b604051809103902082604051602001611ca6919061503d565b604051602081830303815290604052805190602001201415611cc757600080fd5b600073ffffffffffffffffffffffffffffffffffffffff16816020015173ffffffffffffffffffffffffffffffffffffffff161115611d0557600080fd5b60405180606001604052808381526020013373ffffffffffffffffffffffffffffffffffffffff1681526020016000604051908082528060200260200182016040528015611d625781602001602082028038833980820191505090505b50815250600160003373ffffffffffffffffffffffffffffffffffffffff1673ffffffffffffffffffffffffffffffffffffffff1681526020019081526020016000206000820151816000019080519060200190611dc1929190614753565b5060208201518160010160006101000a81548173ffffffffffffffffffffffffffffffffffffffff021916908373ffffffffffffffffffffffffffffffffffffffff1602179055506040820151816002019080519060200190611e259291906147d3565b509050505050565b611e356146d4565b600360003373ffffffffffffffffffffffffffffffffffffffff1673ffffffffffffffffffffffffffffffffffffffff1681526020019081526020016000206040518060a0016040529081600082018054600181600116156101000203166002900480601f016020809104026020016040519081016040528092919081815260200182805460018160011615610100020316600290048015611f185780601f10611eed57610100808354040283529160200191611f18565b820191906000526020600020905b815481529060010190602001808311611efb57829003601f168201915b505050505081526020016001820160009054906101000a900460ff1660ff1660ff1681526020016001820160019054906101000a900473ffffffffffffffffffffffffffffffffffffffff1673ffffffffffffffffffffffffffffffffffffffff1673ffffffffffffffffffffffffffffffffffffffff16815260200160028201805480602002602001604051908101604052809291908181526020018280548015611fe357602002820191906000526020600020905b815481526020019060010190808311611fcf575b505050505081526020016003820180548060200260200160405190810160405280929190818152602001828054801561207157602002820191906000526020600020905b8160009054906101000a900473ffffffffffffffffffffffffffffffffffffffff1673ffffffffffffffffffffffffffffffffffffffff1681526020019060010190808311612027575b505050505081525050905060405161208890615054565b6040518091039020836040516020016120a1919061503d565b6040516020818303038152906040528051906020012014156120c257600080fd5b60008260ff161180156120d8575060648260ff16105b6120e157600080fd5b600073ffffffffffffffffffffffffffffffffffffffff16816040015173ffffffffffffffffffffffffffffffffffffffff16111561211f57600080fd5b6040518060a001604052808481526020018360ff1681526020013373ffffffffffffffffffffffffffffffffffffffff16815260200160006040519080825280602002602001820160405280156121855781602001602082028038833980820191505090505b50815260200160006040519080825280602002602001820160405280156121bb5781602001602082028038833980820191505090505b50815250600360003373ffffffffffffffffffffffffffffffffffffffff1673ffffffffffffffffffffffffffffffffffffffff168152602001908152602001600020600082015181600001908051906020019061221a929190614753565b5060208201518160010160006101000a81548160ff021916908360ff16021790555060408201518160010160016101000a81548173ffffffffffffffffffffffffffffffffffffffff021916908373ffffffffffffffffffffffffffffffffffffffff160217905550606082015181600201908051906020019061229f92919061485d565b5060808201518160030190805190602001906122bc9291906147d3565b50905050505050565b6060806000809054906101000a900473ffffffffffffffffffffffffffffffffffffffff1673ffffffffffffffffffffffffffffffffffffffff163373ffffffffffffffffffffffffffffffffffffffff161461232157600080fd5b8361232a6146d4565b600360008373ffffffffffffffffffffffffffffffffffffffff1673ffffffffffffffffffffffffffffffffffffffff1681526020019081526020016000206040518060a0016040529081600082018054600181600116156101000203166002900480601f01602080910402602001604051908101604052809291908181526020018280546001816001161561010002031660029004801561240d5780601f106123e25761010080835404028352916020019161240d565b820191906000526020600020905b8154815290600101906020018083116123f057829003601f168201915b505050505081526020016001820160009054906101000a900460ff1660ff1660ff1681526020016001820160019054906101000a900473ffffffffffffffffffffffffffffffffffffffff1673ffffffffffffffffffffffffffffffffffffffff1673ffffffffffffffffffffffffffffffffffffffff168152602001600282018054806020026020016040519081016040528092919081815260200182805480156124d857602002820191906000526020600020905b8154815260200190600101908083116124c4575b505050505081526020016003820180548060200260200160405190810160405280929190818152602001828054801561256657602002820191906000526020600020905b8160009054906101000a900473ffffffffffffffffffffffffffffffffffffffff1673ffffffffffffffffffffffffffffffffffffffff168152602001906001019080831161251c575b5050505050815250509050600073ffffffffffffffffffffffffffffffffffffffff16816040015173ffffffffffffffffffffffffffffffffffffffff16116125ae57600080fd5b866125b761471c565b600160008373ffffffffffffffffffffffffffffffffffffffff1673ffffffffffffffffffffffffffffffffffffffff168152602001908152602001600020604051806060016040529081600082018054600181600116156101000203166002900480601f01602080910402602001604051908101604052809291908181526020018280546001816001161561010002031660029004801561269a5780601f1061266f5761010080835404028352916020019161269a565b820191906000526020600020905b81548152906001019060200180831161267d57829003601f168201915b505050505081526020016001820160009054906101000a900473ffffffffffffffffffffffffffffffffffffffff1673ffffffffffffffffffffffffffffffffffffffff1673ffffffffffffffffffffffffffffffffffffffff1681526020016002820180548060200260200160405190810160405280929190818152602001828054801561277e57602002820191906000526020600020905b8160009054906101000a900473ffffffffffffffffffffffffffffffffffffffff1673ffffffffffffffffffffffffffffffffffffffff1681526020019060010190808311612734575b5050505050815250509050600073ffffffffffffffffffffffffffffffffffffffff16816020015173ffffffffffffffffffffffffffffffffffffffff16116127c657600080fd5b6040518060400160405280600681526020017f646f63746f72000000000000000000000000000000000000000000000000000081525089888a600060405161280d9061507e565b604051809103902085604051602001612826919061503d565b604051602081830303815290604052805190602001201415612930576000600460008473ffffffffffffffffffffffffffffffffffffffff1673ffffffffffffffffffffffffffffffffffffffff16815260200190815260200160002060008673ffffffffffffffffffffffffffffffffffffffff1673ffffffffffffffffffffffffffffffffffffffff16815260200190815260200160002054116128cb57600080fd5b600660008373ffffffffffffffffffffffffffffffffffffffff1673ffffffffffffffffffffffffffffffffffffffff16815260200190815260200160002060008481526020019081526020016000205490506000811161292b57600080fd5b6129d3565b60405161293c90615069565b604051809103902085604051602001612955919061503d565b6040516020818303038152906040528051906020012014156129d257600660008573ffffffffffffffffffffffffffffffffffffffff1673ffffffffffffffffffffffffffffffffffffffff1681526020019081526020016000206000848152602001908152602001600020549050600081116129d157600080fd5b5b5b6129db6148aa565b6129e48d6143fd565b9050806000015181602001518191508090509b509b5050505050505050505050935093915050565b33612a156146d4565b600360008373ffffffffffffffffffffffffffffffffffffffff1673ffffffffffffffffffffffffffffffffffffffff1681526020019081526020016000206040518060a0016040529081600082018054600181600116156101000203166002900480601f016020809104026020016040519081016040528092919081815260200182805460018160011615610100020316600290048015612af85780601f10612acd57610100808354040283529160200191612af8565b820191906000526020600020905b815481529060010190602001808311612adb57829003601f168201915b505050505081526020016001820160009054906101000a900460ff1660ff1660ff1681526020016001820160019054906101000a900473ffffffffffffffffffffffffffffffffffffffff1673ffffffffffffffffffffffffffffffffffffffff1673ffffffffffffffffffffffffffffffffffffffff16815260200160028201805480602002602001604051908101604052809291908181526020018280548015612bc357602002820191906000526020600020905b815481526020019060010190808311612baf575b5050505050815260200160038201805480602002602001604051908101604052809291908181526020018280548015612c5157602002820191906000526020600020905b8160009054906101000a900473ffffffffffffffffffffffffffffffffffffffff1673ffffffffffffffffffffffffffffffffffffffff1681526020019060010190808311612c07575b5050505050815250509050600073ffffffffffffffffffffffffffffffffffffffff16816040015173ffffffffffffffffffffffffffffffffffffffff1611612c9957600080fd5b6000600360003373ffffffffffffffffffffffffffffffffffffffff1673ffffffffffffffffffffffffffffffffffffffff16815260200190815260200160002090506001600660003373ffffffffffffffffffffffffffffffffffffffff1673ffffffffffffffffffffffffffffffffffffffff16815260200190815260200160002060008781526020019081526020016000205410612d3957600080fd5b604051806060016040528088815260200187815260200185815250600560008781526020019081526020016000206000820151816000019080519060200190612d83929190614753565b506020820151816001019080519060200190612da0929190614753565b506040820151816002019080519060200190612dbd929190614753565b509050506000816002018690806001815401808255809150509060018203906000526020600020016000909192909190915055905080600660003373ffffffffffffffffffffffffffffffffffffffff1673ffffffffffffffffffffffffffffffffffffffff1681526020019081526020016000206000888152602001908152602001600020819055505050505050505050565b6060806000809054906101000a900473ffffffffffffffffffffffffffffffffffffffff1673ffffffffffffffffffffffffffffffffffffffff163373ffffffffffffffffffffffffffffffffffffffff1614612ead57600080fd5b83612eb66146d4565b600360008373ffffffffffffffffffffffffffffffffffffffff1673ffffffffffffffffffffffffffffffffffffffff1681526020019081526020016000206040518060a0016040529081600082018054600181600116156101000203166002900480601f016020809104026020016040519081016040528092919081815260200182805460018160011615610100020316600290048015612f995780601f10612f6e57610100808354040283529160200191612f99565b820191906000526020600020905b815481529060010190602001808311612f7c57829003601f168201915b505050505081526020016001820160009054906101000a900460ff1660ff1660ff1681526020016001820160019054906101000a900473ffffffffffffffffffffffffffffffffffffffff1673ffffffffffffffffffffffffffffffffffffffff1673ffffffffffffffffffffffffffffffffffffffff1681526020016002820180548060200260200160405190810160405280929190818152602001828054801561306457602002820191906000526020600020905b815481526020019060010190808311613050575b50505050508152602001600382018054806020026020016040519081016040528092919081815260200182805480156130f257602002820191906000526020600020905b8160009054906101000a900473ffffffffffffffffffffffffffffffffffffffff1673ffffffffffffffffffffffffffffffffffffffff16815260200190600101908083116130a8575b5050505050815250509050600073ffffffffffffffffffffffffffffffffffffffff16816040015173ffffffffffffffffffffffffffffffffffffffff161161313a57600080fd5b6040518060400160405280600781526020017f70617469656e740000000000000000000000000000000000000000000000000081525086868860006040516131819061507e565b60405180910390208560405160200161319a919061503d565b6040516020818303038152906040528051906020012014156132a4576000600460008473ffffffffffffffffffffffffffffffffffffffff1673ffffffffffffffffffffffffffffffffffffffff16815260200190815260200160002060008673ffffffffffffffffffffffffffffffffffffffff1673ffffffffffffffffffffffffffffffffffffffff168152602001908152602001600020541161323f57600080fd5b600660008373ffffffffffffffffffffffffffffffffffffffff1673ffffffffffffffffffffffffffffffffffffffff16815260200190815260200160002060008481526020019081526020016000205490506000811161329f57600080fd5b613347565b6040516132b090615069565b6040518091039020856040516020016132c9919061503d565b60405160208183030381529060405280519060200120141561334657600660008573ffffffffffffffffffffffffffffffffffffffff1673ffffffffffffffffffffffffffffffffffffffff16815260200190815260200160002060008481526020019081526020016000205490506000811161334557600080fd5b5b5b61334f6148aa565b6133588b6143fd565b9050806000015181602001518191508090509950995050505050505050509250929050565b6060600060603361338c61471c565b600160008373ffffffffffffffffffffffffffffffffffffffff1673ffffffffffffffffffffffffffffffffffffffff168152602001908152602001600020604051806060016040529081600082018054600181600116156101000203166002900480601f01602080910402602001604051908101604052809291908181526020018280546001816001161561010002031660029004801561346f5780601f106134445761010080835404028352916020019161346f565b820191906000526020600020905b81548152906001019060200180831161345257829003601f168201915b505050505081526020016001820160009054906101000a900473ffffffffffffffffffffffffffffffffffffffff1673ffffffffffffffffffffffffffffffffffffffff1673ffffffffffffffffffffffffffffffffffffffff1681526020016002820180548060200260200160405190810160405280929190818152602001828054801561355357602002820191906000526020600020905b8160009054906101000a900473ffffffffffffffffffffffffffffffffffffffff1673ffffffffffffffffffffffffffffffffffffffff1681526020019060010190808311613509575b5050505050815250509050600073ffffffffffffffffffffffffffffffffffffffff16816020015173ffffffffffffffffffffffffffffffffffffffff161161359b57600080fd5b6135a361471c565b600160003373ffffffffffffffffffffffffffffffffffffffff1673ffffffffffffffffffffffffffffffffffffffff168152602001908152602001600020604051806060016040529081600082018054600181600116156101000203166002900480601f0160208091040260200160405190810160405280929190818152602001828054600181600116156101000203166002900480156136865780601f1061365b57610100808354040283529160200191613686565b820191906000526020600020905b81548152906001019060200180831161366957829003601f168201915b505050505081526020016001820160009054906101000a900473ffffffffffffffffffffffffffffffffffffffff1673ffffffffffffffffffffffffffffffffffffffff1673ffffffffffffffffffffffffffffffffffffffff1681526020016002820180548060200260200160405190810160405280929190818152602001828054801561376a57602002820191906000526020600020905b8160009054906101000a900473ffffffffffffffffffffffffffffffffffffffff1673ffffffffffffffffffffffffffffffffffffffff1681526020019060010190808311613720575b5050505050815250509050806000015181602001518260400151829250809050955095509550505050909192565b6060846060600560008381526020019081526020016000206000018054600181600116156101000203166002900480601f0160208091040260200160405190810160405280929190818152602001828054600181600116156101000203166002900480156138475780601f1061381c57610100808354040283529160200191613847565b820191906000526020600020905b81548152906001019060200180831161382a57829003601f168201915b50505050509050600081511161385c57600080fd5b85858886600060405161386e9061507e565b604051809103902085604051602001613887919061503d565b604051602081830303815290604052805190602001201415613991576000600460008473ffffffffffffffffffffffffffffffffffffffff1673ffffffffffffffffffffffffffffffffffffffff16815260200190815260200160002060008673ffffffffffffffffffffffffffffffffffffffff1673ffffffffffffffffffffffffffffffffffffffff168152602001908152602001600020541161392c57600080fd5b600660008373ffffffffffffffffffffffffffffffffffffffff1673ffffffffffffffffffffffffffffffffffffffff16815260200190815260200160002060008481526020019081526020016000205490506000811161398c57600080fd5b613a34565b60405161399d90615069565b6040518091039020856040516020016139b6919061503d565b604051602081830303815290604052805190602001201415613a3357600660008573ffffffffffffffffffffffffffffffffffffffff1673ffffffffffffffffffffffffffffffffffffffff168152602001908152602001600020600084815260200190815260200160002054905060008111613a3257600080fd5b5b5b613a3c6148aa565b613a458d6143fd565b9050806040015198505050505050505050949350505050565b6060600080606084613a6e6146d4565b600360008373ffffffffffffffffffffffffffffffffffffffff1673ffffffffffffffffffffffffffffffffffffffff1681526020019081526020016000206040518060a0016040529081600082018054600181600116156101000203166002900480601f016020809104026020016040519081016040528092919081815260200182805460018160011615610100020316600290048015613b515780601f10613b2657610100808354040283529160200191613b51565b820191906000526020600020905b815481529060010190602001808311613b3457829003601f168201915b505050505081526020016001820160009054906101000a900460ff1660ff1660ff1681526020016001820160019054906101000a900473ffffffffffffffffffffffffffffffffffffffff1673ffffffffffffffffffffffffffffffffffffffff1673ffffffffffffffffffffffffffffffffffffffff16815260200160028201805480602002602001604051908101604052809291908181526020018280548015613c1c57602002820191906000526020600020905b815481526020019060010190808311613c08575b5050505050815260200160038201805480602002602001604051908101604052809291908181526020018280548015613caa57602002820191906000526020600020905b8160009054906101000a900473ffffffffffffffffffffffffffffffffffffffff1673ffffffffffffffffffffffffffffffffffffffff1681526020019060010190808311613c60575b5050505050815250509050600073ffffffffffffffffffffffffffffffffffffffff16816040015173ffffffffffffffffffffffffffffffffffffffff1611613cf257600080fd5b33613cfb61471c565b600160008373ffffffffffffffffffffffffffffffffffffffff1673ffffffffffffffffffffffffffffffffffffffff168152602001908152602001600020604051806060016040529081600082018054600181600116156101000203166002900480601f016020809104026020016040519081016040528092919081815260200182805460018160011615610100020316600290048015613dde5780601f10613db357610100808354040283529160200191613dde565b820191906000526020600020905b815481529060010190602001808311613dc157829003601f168201915b505050505081526020016001820160009054906101000a900473ffffffffffffffffffffffffffffffffffffffff1673ffffffffffffffffffffffffffffffffffffffff1673ffffffffffffffffffffffffffffffffffffffff16815260200160028201805480602002602001604051908101604052809291908181526020018280548015613ec257602002820191906000526020600020905b8160009054906101000a900473ffffffffffffffffffffffffffffffffffffffff1673ffffffffffffffffffffffffffffffffffffffff1681526020019060010190808311613e78575b5050505050815250509050600073ffffffffffffffffffffffffffffffffffffffff16816020015173ffffffffffffffffffffffffffffffffffffffff1611613f0a57600080fd5b613f126146d4565b600360008b73ffffffffffffffffffffffffffffffffffffffff1673ffffffffffffffffffffffffffffffffffffffff1681526020019081526020016000206040518060a0016040529081600082018054600181600116156101000203166002900480601f016020809104026020016040519081016040528092919081815260200182805460018160011615610100020316600290048015613ff55780601f10613fca57610100808354040283529160200191613ff5565b820191906000526020600020905b815481529060010190602001808311613fd857829003601f168201915b505050505081526020016001820160009054906101000a900460ff1660ff1660ff1681526020016001820160019054906101000a900473ffffffffffffffffffffffffffffffffffffffff1673ffffffffffffffffffffffffffffffffffffffff1673ffffffffffffffffffffffffffffffffffffffff168152602001600282018054806020026020016040519081016040528092919081815260200182805480156140c057602002820191906000526020600020905b8154815260200190600101908083116140ac575b505050505081526020016003820180548060200260200160405190810160405280929190818152602001828054801561414e57602002820191906000526020600020905b8160009054906101000a900473ffffffffffffffffffffffffffffffffffffffff1673ffffffffffffffffffffffffffffffffffffffff1681526020019060010190808311614104575b5050505050815250509050806000015181602001518260400151600760008e73ffffffffffffffffffffffffffffffffffffffff1673ffffffffffffffffffffffffffffffffffffffff16815260200190815260200160002083935080805480602002602001604051908101604052809291908181526020016000905b828210156143e35783829060005260206000209060030201604051806060016040529081600082018054600181600116156101000203166002900480601f0160208091040260200160405190810160405280929190818152602001828054600181600116156101000203166002900480156142875780601f1061425c57610100808354040283529160200191614287565b820191906000526020600020905b81548152906001019060200180831161426a57829003601f168201915b50505050508152602001600182018054600181600116156101000203166002900480601f0160208091040260200160405190810160405280929190818152602001828054600181600116156101000203166002900480156143295780601f106142fe57610100808354040283529160200191614329565b820191906000526020600020905b81548152906001019060200180831161430c57829003601f168201915b50505050508152602001600282018054600181600116156101000203166002900480601f0160208091040260200160405190810160405280929190818152602001828054600181600116156101000203166002900480156143cb5780601f106143a0576101008083540402835291602001916143cb565b820191906000526020600020905b8154815290600101906020018083116143ae57829003601f168201915b505050505081525050815260200190600101906141cb565b505050509050985098509850985050505050509193509193565b6144056148aa565b816060600560008381526020019081526020016000206000018054600181600116156101000203166002900480601f0160208091040260200160405190810160405280929190818152602001828054600181600116156101000203166002900480156144b25780601f10614487576101008083540402835291602001916144b2565b820191906000526020600020905b81548152906001019060200180831161449557829003601f168201915b5050505050905060008151116144c757600080fd5b60056000858152602001908152602001600020604051806060016040529081600082018054600181600116156101000203166002900480601f01602080910402602001604051908101604052809291908181526020018280546001816001161561010002031660029004801561457e5780601f106145535761010080835404028352916020019161457e565b820191906000526020600020905b81548152906001019060200180831161456157829003601f168201915b50505050508152602001600182018054600181600116156101000203166002900480601f0160208091040260200160405190810160405280929190818152602001828054600181600116156101000203166002900480156146205780601f106145f557610100808354040283529160200191614620565b820191906000526020600020905b81548152906001019060200180831161460357829003601f168201915b50505050508152602001600282018054600181600116156101000203166002900480601f0160208091040260200160405190810160405280929190818152602001828054600181600116156101000203166002900480156146c25780601f10614697576101008083540402835291602001916146c2565b820191906000526020600020905b8154815290600101906020018083116146a557829003601f168201915b50505050508152505092505050919050565b6040518060a0016040528060608152602001600060ff168152602001600073ffffffffffffffffffffffffffffffffffffffff16815260200160608152602001606081525090565b604051806060016040528060608152602001600073ffffffffffffffffffffffffffffffffffffffff168152602001606081525090565b828054600181600116156101000203166002900490600052602060002090601f016020900481019282601f1061479457805160ff19168380011785556147c2565b828001600101855582156147c2579182015b828111156147c15782518255916020019190600101906147a6565b5b5090506147cf91906148cb565b5090565b82805482825590600052602060002090810192821561484c579160200282015b8281111561484b5782518260006101000a81548173ffffffffffffffffffffffffffffffffffffffff021916908373ffffffffffffffffffffffffffffffffffffffff160217905550916020019190600101906147f3565b5b50905061485991906148f0565b5090565b828054828255906000526020600020908101928215614899579160200282015b8281111561489857825182559160200191906001019061487d565b5b5090506148a69190614933565b5090565b60405180606001604052806060815260200160608152602001606081525090565b6148ed91905b808211156148e95760008160009055506001016148d1565b5090565b90565b61493091905b8082111561492c57600081816101000a81549073ffffffffffffffffffffffffffffffffffffffff0219169055506001016148f6565b5090565b90565b61495591905b80821115614951576000816000905550600101614939565b5090565b90565b600081359050614967816153f1565b92915050565b60008135905061497c81615408565b92915050565b600082601f83011261499357600080fd5b81356149a66149a18261523b565b61520e565b915080825260208301602083018583830111156149c257600080fd5b6149cd83828461539e565b50505092915050565b6000813590506149e58161541f565b92915050565b6000602082840312156149fd57600080fd5b6000614a0b84828501614958565b91505092915050565b600080600060608486031215614a2957600080fd5b6000614a3786828701614958565b9350506020614a4886828701614958565b9250506040614a598682870161496d565b9150509250925092565b60008060408385031215614a7657600080fd5b6000614a8485828601614958565b9250506020614a958582860161496d565b9150509250929050565b60008060008060808587031215614ab557600080fd5b6000614ac38782880161496d565b945050602085013567ffffffffffffffff811115614ae057600080fd5b614aec87828801614982565b9350506040614afd87828801614958565b9250506060614b0e87828801614958565b91505092959194509250565b600060208284031215614b2c57600080fd5b600082013567ffffffffffffffff811115614b4657600080fd5b614b5284828501614982565b91505092915050565b60008060008060808587031215614b7157600080fd5b600085013567ffffffffffffffff811115614b8b57600080fd5b614b9787828801614982565b945050602085013567ffffffffffffffff811115614bb457600080fd5b614bc087828801614982565b9350506040614bd18782880161496d565b925050606085013567ffffffffffffffff811115614bee57600080fd5b614bfa87828801614982565b91505092959194509250565b600080600060608486031215614c1b57600080fd5b600084013567ffffffffffffffff811115614c3557600080fd5b614c4186828701614982565b935050602084013567ffffffffffffffff811115614c5e57600080fd5b614c6a86828701614982565b925050604084013567ffffffffffffffff811115614c8757600080fd5b614c9386828701614982565b9150509250925092565b60008060408385031215614cb057600080fd5b600083013567ffffffffffffffff811115614cca57600080fd5b614cd685828601614982565b9250506020614ce7858286016149d6565b9150509250929050565b6000614cfd8383614d35565b60208301905092915050565b6000614d158383614e84565b60208301905092915050565b6000614d2d8383614fd0565b905092915050565b614d3e81615355565b82525050565b614d4d81615355565b82525050565b6000614d5e82615297565b614d6881856152f5565b9350614d7383615267565b8060005b83811015614da4578151614d8b8882614cf1565b9750614d96836152ce565b925050600181019050614d77565b5085935050505092915050565b6000614dbc826152a2565b614dc68185615306565b9350614dd183615277565b8060005b83811015614e02578151614de98882614d09565b9750614df4836152db565b925050600181019050614dd5565b5085935050505092915050565b6000614e1a826152ad565b614e248185615317565b935083602082028501614e3685615287565b8060005b85811015614e725784840389528151614e538582614d21565b9450614e5e836152e8565b925060208a01995050600181019050614e3a565b50829750879550505050505092915050565b614e8d81615367565b82525050565b6000614e9e826152c3565b614ea88185615339565b9350614eb88185602086016153ad565b614ec1816153e0565b840191505092915050565b6000614ed7826152c3565b614ee1818561534a565b9350614ef18185602086016153ad565b80840191505092915050565b6000614f08826152b8565b614f128185615328565b9350614f228185602086016153ad565b614f2b816153e0565b840191505092915050565b6000614f4360008361534a565b9150600082019050919050565b6000614f5d60078361534a565b91507f70617469656e74000000000000000000000000000000000000000000000000006000830152600782019050919050565b6000614f9d60068361534a565b91507f646f63746f7200000000000000000000000000000000000000000000000000006000830152600682019050919050565b60006060830160008301518482036000860152614fed8282614efd565b915050602083015184820360208601526150078282614efd565b915050604083015184820360408601526150218282614efd565b9150508091505092915050565b61503781615391565b82525050565b60006150498284614ecc565b915081905092915050565b600061505f82614f36565b9150819050919050565b600061507482614f50565b9150819050919050565b600061508982614f90565b9150819050919050565b600060208201905081810360008301526150ad8184614e0f565b905092915050565b600060208201905081810360008301526150cf8184614e93565b905092915050565b600060608201905081810360008301526150f18186614e93565b90506151006020830185614d44565b81810360408301526151128184614d53565b9050949350505050565b600060a08201905081810360008301526151368188614e93565b90506151456020830187614d44565b615152604083018661502e565b81810360608301526151648185614db1565b905081810360808301526151788184614d53565b90509695505050505050565b6000604082019050818103600083015261519e8185614e93565b905081810360208301526151b28184614e93565b90509392505050565b600060808201905081810360008301526151d58187614e93565b90506151e4602083018661502e565b6151f16040830185614d44565b81810360608301526152038184614e0f565b905095945050505050565b6000604051905081810181811067ffffffffffffffff8211171561523157600080fd5b8060405250919050565b600067ffffffffffffffff82111561525257600080fd5b601f19601f8301169050602081019050919050565b6000819050602082019050919050565b6000819050602082019050919050565b6000819050602082019050919050565b600081519050919050565b600081519050919050565b600081519050919050565b600081519050919050565b600081519050919050565b6000602082019050919050565b6000602082019050919050565b6000602082019050919050565b600082825260208201905092915050565b600082825260208201905092915050565b600082825260208201905092915050565b600082825260208201905092915050565b600082825260208201905092915050565b600081905092915050565b600061536082615371565b9050919050565b6000819050919050565b600073ffffffffffffffffffffffffffffffffffffffff82169050919050565b600060ff82169050919050565b82818337600083830152505050565b60005b838110156153cb5780820151818401526020810190506153b0565b838111156153da576000848401525b50505050565b6000601f19601f8301169050919050565b6153fa81615355565b811461540557600080fd5b50565b61541181615367565b811461541c57600080fd5b50565b61542881615391565b811461543357600080fd5b5056fea365627a7a72315820133aad5cf6b43971b2e5eed87b7ff4545a28c5a8d87790cb0451ae112dba42616c6578706572696d656e74616cf564736f6c63430005100040",
  "source": "pragma solidity >=0.4.21 <0.7.0;\npragma experimental ABIEncoderV2;\n\ncontract optimized_healthCare {\n  address private owner;\n  mapping (address => doctor) private doctors;// doctor and list of patient profile he can access\n  mapping (address => mapping(address => uint)) private doctorToPatient;\n  mapping (address => patient) private patients;\n  mapping (address => mapping (address => uint)) private patientToDoctor;\n  mapping (bytes32 => filesInfo) private hashToFile; //filehash to file info\n  mapping (address => mapping (bytes32 => uint)) private patientToFile;\n  mapping (address => files[]) private patientFiles;\n  uint private gpos;\n  struct files{\n      string file_name;\n      string file_type;\n      string file_hash;\n  }\n  struct filesInfo {\n      string file_name;\n      string file_type;\n      string file_secret;\n  }\n  \n  struct patient {\n      string name;\n      uint8 age;\n      address id;\n      bytes32[] files;// hashes of file that belong to this user for display purpose\n      address[] doctor_list;\n  }\n  \n  struct doctor {\n      string name;\n      address id;\n      address[] patient_list;\n  }\n  \n  constructor() public {\n    owner = msg.sender;\n  }\n  \n  modifier checkDoctor(address id) {\n    doctor memory d = doctors[id];\n    require(d.id > address(0x0));//check if doctor exist\n    _;\n  }\n  \n  modifier checkPatient(address id) {\n    patient memory p = patients[id];\n    require(p.id > address(0x0));//check if patient exist\n    _;\n  }\n  \n  modifier onlyOwner() {\n    require(msg.sender == owner);\n    _;\n  }\n  \n  modifier checkFileAccess(string memory role, address id, bytes32 fileHashId, address pat) {\n    uint pos;\n    if(keccak256(abi.encodePacked(role)) == keccak256(\"doctor\")) {\n        require(patientToDoctor[pat][id] > 0);\n        pos = patientToFile[pat][fileHashId];\n        require(pos > 0);   \n    }\n    else if(keccak256(abi.encodePacked(role)) == keccak256(\"patient\")) {\n        pos = patientToFile[id][fileHashId];\n        require(pos > 0);\n    }\n    _; \n  }\n  \n  modifier checkFile(bytes32 fileHashId) {\n    bytes memory tempString = bytes(hashToFile[fileHashId].file_name);\n    require(tempString.length > 0);//check if file exist\n    _;\n  }\n\n  function signupPatient(string memory _name, uint8 _age) public {\n     patient memory p = patients[msg.sender];\n     require(keccak256(abi.encodePacked(_name)) != keccak256(\"\"));\n     require((_age > 0) && (_age < 100));\n     require(!(p.id > address(0x0)));\n\n     patients[msg.sender] = patient({name:_name,age:_age,id:msg.sender,files:new bytes32[](0),doctor_list:new address[](0)});\n  }\n  \n  function signupDoctor(string memory _name) public {\n      doctor memory d = doctors[msg.sender];\n      require(keccak256(abi.encodePacked(_name)) != keccak256(\"\"));\n      require(!(d.id > address(0x0)));\n\n      doctors[msg.sender] = doctor({name:_name,id:msg.sender,patient_list:new address[](0)});\n  }\n  \n  function grantAccessToDoctor(address doctor_id) public checkPatient(msg.sender) checkDoctor(doctor_id) {\n      patient storage p = patients[msg.sender];\n      doctor storage d = doctors[doctor_id];\n      require(patientToDoctor[msg.sender][doctor_id] < 1);// this means doctor already been access\n      \n      uint pos = p.doctor_list.push(doctor_id);// new length of array\n      gpos = pos;\n      patientToDoctor[msg.sender][doctor_id] = pos;\n      d.patient_list.push(msg.sender);\n  }\n  \n  function addFile(string memory _file_name, string memory _file_type, bytes32 _fileHash, string memory _file_secret) public checkPatient(msg.sender) {\n      patient storage p = patients[msg.sender];\n\n      require(patientToFile[msg.sender][_fileHash] < 1);\n      \n      hashToFile[_fileHash] = filesInfo({file_name:_file_name, file_type:_file_type,file_secret:_file_secret});\n      uint pos = p.files.push(_fileHash);\n      patientToFile[msg.sender][_fileHash] = pos;\n  } \nfunction addUserFiles(string memory _file_name, string memory _file_type,string memory _file_hash) public checkPatient(msg.sender){\n    \n    patientFiles[msg.sender].push(files({file_name:_file_name, file_type:_file_type,file_hash:_file_hash}));\n}\nfunction getUserFiles(address sender)public view returns(files[] memory){\n    return patientFiles[sender];\n}\n  function getPatientInfo() public view checkPatient(msg.sender) returns(string memory,address, uint8, bytes32[] memory , address[] memory) {\n      patient memory p = patients[msg.sender];\n      return (p.name,p.id, p.age, p.files, p.doctor_list);\n  }\n  \n  function getDoctorInfo() public view checkDoctor(msg.sender) returns(string memory,address, address[] memory){\n      doctor memory d = doctors[msg.sender];\n      return (d.name,d.id, d.patient_list);\n  }\n  \n  function checkProfile(address _user) public view onlyOwner returns(string memory, string memory){\n      patient memory p = patients[_user];\n      doctor memory d = doctors[_user];\n      \n      if(p.id > address(0x0))\n          return (p.name, 'patient');\n      else if(d.id > address(0x0))\n          return (d.name, 'doctor');\n      else\n          return ('', '');\n  }\n  \n  function getPatientInfoForDoctor(address pat) public view checkPatient(pat) checkDoctor(msg.sender) returns(string memory, uint8, address, files[] memory){\n      patient memory p = patients[pat];\n\n      //require(patientToDoctor[pat][msg.sender] > 0);\n\n      return (p.name, p.age, p.id, patientFiles[pat]);\n  }\n  \n  function getFileInfo(bytes32 fileHashId) private view checkFile(fileHashId) returns(filesInfo memory) {\n      return hashToFile[fileHashId];\n  }\n  \n  function getFileSecret(bytes32 fileHashId, string memory role, address id, address pat) public view \n  checkFile(fileHashId) checkFileAccess(role, id, fileHashId, pat)\n  returns(string memory) {\n      filesInfo memory f = getFileInfo(fileHashId);\n      return (f.file_secret);\n  }\n\n  function getFileInfoDoctor(address doc, address pat, bytes32 fileHashId) public view \n  onlyOwner checkPatient(pat) checkDoctor(doc) checkFileAccess(\"doctor\", doc, fileHashId, pat)\n  returns(string memory, string memory) {\n      filesInfo memory f = getFileInfo(fileHashId);\n      return (f.file_name, f.file_type);\n  }\n  \n  function getFileInfoPatient(address pat, bytes32 fileHashId) public view \n  onlyOwner checkPatient(pat) checkFileAccess(\"patient\", pat, fileHashId, pat) returns(string memory, string memory) {\n      filesInfo memory f = getFileInfo(fileHashId);\n      return (f.file_name, f.file_type);\n  }\n  \n}",
  "sourcePath": "D:\\test\\test\\contracts\\optimized_healthCare.sol",
  "compiler": {
    "name": "solc",
    "version": "0.5.16+commit.9c3226ce.Emscripten.clang"
  },
  "schemaVersion": "3.0.23",
  "updatedAt": "2020-04-28T14:50:41.900Z",
  "networkType": "ethereum",
  "devdoc": {
    "methods": {}
  },
  "userdoc": {
    "methods": {}
  }
}